:020000040800F2
:1000000000000120C5020008CB020008CF02000852
:1000100041030008450300088D03000800000000AC
:10002000000000000000000000000000D5030008F0
:10003000D903000800000000DD030008F5110008E6
:10004000F1030008F1030008F1030008F1030008C0
:10005000F1030008F1030008F1030008F1030008B0
:10006000F1030008F1030008F1030008F1030008A0
:10007000F1030008F1030008F1030008F103000890
:10008000F1030008F1030008F1030008000000007C
:10009000000000000000000000000000F103000864
:1000A000F1030008F1030008F1030008F103000860
:1000B000F1030008F1030008F1030008F103000850
:1000C000F1030008F1030008F1030008F103000840
:1000D000F1030008F1030008F1030008000000002C
:1000E000F1030008F1030008F1030008000000001C
:1000F000000000000000000000000000F103000804
:1001000000000000F1030008F1030008F1030008FB
:1001100000000000000000000000000000000000DF
:10012000F1030008F1030008F1030008F1030008DF
:10013000F1030008000000000000000000000000C3
:10014000000000000000000000000000F1030008B3
:10015000F1030008F1030008F1030008F1030008AF
:10016000F1030008F1030008000000000000000097
:10017000000000000000000000000000000000007F
:1001800000000000F1030008000000000000000073
:10019000F103000800B583B000F046FE384B394A41
:1001A0001360394A1360394900E02146384B9942BF
:1001B0000BD20A684B6801F10C0488689842F4D9A4
:1001C0001168196004330432F8E72E4B1A68314B7A
:1001D0009A4200D0FEE72C4B1A682F4B9A42F9D175
:1001E000274B2E4A13602E4A13602E4B05E0002049
:1001F000106004329342FAD80B462B4A934204D241
:10020000194651F8082B5B68F4E7244B1B6813B9B7
:10021000234B1B6803B1FEE701F0F0F8694601A823
:1002200000F094FD214C224BE41AA4100025AC42AE
:1002300014DC204C204BE41AA4100025AC4213DC43
:100240000099019801F0E2F805461C4C1C4BE41A99
:10025000A410002C0EDC284600F04AFD144B53F885
:10026000253098470135E2E7134B53F8253098477E
:100270000135E3E7013C124B53F824309847E8E797
:10028000BABADECA0000002074000020F40300089F
:100290000C04000878563412325476987800002006
:1002A0001C0100200C0400081C0400081C040008A9
:1002B0001C0400081C0400081C0400081C0400089E
:1002C0001C04000808B5FFF765FF00BEFEE71EF03E
:1002D000040F0CBFEFF30880EFF309807146414A29
:1002E00010472DE9F04182B004468846124B5E6B00
:1002F0009F6B9D6A1B6B13F0020F03D00E4BDB6AE2
:10030000002B0CDB0D4800F033FDCDF800803B46A0
:1003100032462946204600F093FD00BEFEE74BF62C
:10032000AB6100F007FE0028ECD0034B4FF0004219
:10033000DA6202B0BDE8F08100ED00E0481F00087D
:1003400000BEFEE71EF0040F0CBFEFF30880EFF3D2
:1003500009807146244A10472DE9F04182B00446D5
:100360008846084B5E6B9F6B9D6A074800F000FD56
:10037000CDF800803B4632462946204600F060FD1D
:1003800000BEFEE700ED00E0581F00081EF0040F5D
:100390000CBFEFF30880EFF309807146134A104752
:1003A0002DE9F04182B004468846084B5E6B9F6B96
:1003B0009D6A074800F0DCFCCDF800803B463246E1
:1003C0002946204600F03CFD00BEFEE700ED00E0BF
:1003D000641F000800BEFEE700BEFEE700BEFEE7A9
:1003E00070470000E302000859030008A103000859
:0403F00000BEFEE766
:1003F400B8BF00080000002078000020B8BF000843
:1004040000000010000000107800002020010020EF
:080414000000001000000010C0
:1004200010B50446074B1868074BA3FB0030800942
:1004300000F090F8002221464FF0FF3000F044F821
:10044000002010BD0C000020D34D621008B50B4BEE
:100450001A6842F400721A601A6842F480621A60E4
:100460001A6842F480721A60032000F00FF80F201F
:10047000FFF7D6FF01F000F8002008BD003C024065
:10048000014B1868704700BF1401002010B50446E6
:10049000C31E042B0FD80A4AD36823F4E0631B045D
:1004A0001B0C240204F4E064234343F0BF6343F4D1
:1004B0000033D36010BDA421024800F04FFCEAE7EE
:1004C00000ED00E0781D000870B505460C461646A4
:1004D0000F2A25D80F2C28D81B4BDB68C3F3022327
:1004E000C3F10702042A28BF0422191D062921D9B5
:1004F000033B4FF0FF3101FA02F224EA02049C4070
:1005000001FA03F326EA03063443002D14DB240129
:10051000E4B205F1604505F5614585F8004370BD1D
:10052000BC210A4800F01AFCD4E7BD21074800F0BE
:1005300015FCD1E70023DCE705F00F052401E4B248
:10054000034B5C55EBE700BF00ED00E0781D0008B1
:1005500014ED00E00138B0F1807F0AD2064B5860FC
:10056000064AF02182F823100020986007221A60C2
:1005700070470120704700BF10E000E000ED00E090
:1005800010B50446042800D038B9042C0BD0094A11
:10059000136823F00403136010BD40F2B311064842
:1005A00000F0DCFBF1E7034A136843F00403136037
:1005B000F2E700BF10E000E0781D000830B583B01E
:1005C000044603680F2B29D8236813F0010F3DD090
:1005D0006368012B01D9052B25D1A34B9B6803F040
:1005E0000C03042B29D0A04B9B6803F00C03082BB1
:1005F0001ED022799D4B1A706368002B50D0FFF7F4
:100600003FFF0546984B1B6813F4003F1ED1FFF7D0
:1006100037FF401B6428F5D90320E3E1F521944816
:1006200000F09CFBD0E7FA21914800F097FBD4E75B
:100630008D4B5B6813F4800FDBD08B4B1B6813F47E
:10064000003F03D06368002B00F0C981236813F0DA
:10065000020F5DD0E368012B31D823691F2B34D8FA
:10066000814B9B6813F00C0F3AD07F4B9B6803F0D3
:100670000C03082B2FD0E368002B74D07D4B012294
:100680001A60FFF7FDFE0546774B1B6813F0020F5B
:100690005AD1FFF7F5FE401B0228F5D90320A1E14E
:1006A000FFF7EEFE0546704B1B6813F4003FCDD0FC
:1006B000FFF7E6FE401B6428F5D9032092E14FF4D2
:1006C00096716B4800F04AFBC7E740F22D1168486D
:1006D00000F044FBC4E7644B5B6813F4800FCAD19D
:1006E000614B1B6813F0020F04D0E368012B01D0AB
:1006F000012077E15C48036823F0F8032169F822C0
:1007000092FAA2F2B2FA82F201FA02F21343036001
:10071000236813F0080F50D06369012B35D8636943
:10072000002B38D0544B01221A60FFF7A9FE054672
:100730004D4B5B6F13F0020F3FD1FFF7A1FE401B43
:100740000228F5D903204DE14748036823F0F80358
:100750002169F82292FAA2F2B2FA82F201FA02F2C6
:1007600013430360D4E7434B00221A60FFF788FE6F
:1007700005463D4B1B6813F0020FC9D0FFF780FE02
:10078000401B0228F5D903202CE140F26D113848B6
:1007900000F0E4FAC3E7384B00221A60FFF770FE5E
:1007A0000546314B5B6F13F0020F06D0FFF768FE72
:1007B000401B0228F5D9032014E1236813F0040F2D
:1007C00060D0A368012B01D9052B1FD10023019311
:1007D000254B1A6C42F080521A641B6C03F0805354
:1007E0000193019B254A136843F480731360FFF75C
:1007F00047FE0546214B1B6813F4807F0CD1FFF7A1
:100800003FFE401B0228F5D90320EBE040F2971190
:10081000174800F0A3FAD9E7227A194B1A70A36897
:1008200083B1FFF72DFE05460F4B1B6F13F0020F30
:1008300028D1FFF725FE401B41F288339842F3D9B7
:100840000320CFE0FFF71CFE0546074B1B6F13F09C
:10085000020F17D0FFF714FE401B41F28833984275
:10086000F3D90320BEE000BF003802400238024046
:10087000BC1D000800004742800E47420070004047
:1008800070380240A369022B39D8A369002B00F00D
:10089000A880564A926802F00C02082A00F0A48050
:1008A000022B40F08880E36913B1B3F5800F2CD19F
:1008B000236A3F2B2FD8636A323BB3F5BF7F30D812
:1008C000A36A022B05D0042B03D0062B01D0082BE2
:1008D0002DD1E36A043B0B2B2FD8454B00221A6025
:1008E000FFF7CEFD0546414B1B6813F0007F2AD071
:1008F000FFF7C6FD401B0228F5D9032072E04FF434
:10090000E6713C4800F02AFABFE740F2D5113948B9
:1009100000F024FACCE74FF4EB71364800F01EFAF1
:10092000C9E740F2D711334800F018FAC8E74FF48E
:10093000EC71304800F012FACBE740F2D9112D48A3
:1009400000F00CFAC9E7E369226A1343616A47F6CB
:10095000C07292FAA2F2B2FA82F201FA02F21343E0
:10096000A26A5208013A4FF4403191FAA1F1B1FA6A
:1009700081F18A401343E16A4FF0706292FAA2F269
:10098000B2FA82F201FA02F21343184A5360184B8A
:1009900001221A60FFF774FD0446144B1B6813F024
:1009A000007F06D1FFF76CFD001B0228F5D903205C
:1009B00018E0002016E00E4B00221A60FFF760FDE1
:1009C00004460A4B1B6813F0007F06D0FFF758FD62
:1009D000001B0228F5D9032004E0002002E00120DA
:1009E00000E0002003B030BD0120FBE700380240EA
:1009F00060004742BC1D0008214B9B6803F00C03BC
:100A0000042B3AD0082B01D01E4870471C4B586865
:100A100000F03F005B6813F4800F1ED01A4AB2FB4F
:100A2000F0F2174B586847F6C073184093FAA3F3D7
:100A3000B3FA83F3D84000FB02F0114B5B6803F478
:100A400040334FF4403292FAA2F2B2FA82F2D3402B
:100A500001335B00B0FBF3F070470A4AB2FBF0F2DF
:100A6000074B586847F6C073184093FAA3F3B3FADC
:100A700083F3D84000FB02F0DFE70348704700BF74
:100A8000003802400024F40040787D0170B504462F
:100A90000D460368013B0E2B11D8072D15D88C4B42
:100AA0001B6803F00F03AB4215D2EBB2884A1370F8
:100AB000136803F00F03AB420DD0012070BD40F26C
:100AC0003721844800F04AF9E7E74FF40E71814876
:100AD00000F044F9E3E7236813F0020F18D0A3688D
:100AE0007BB1802B0DD0902B0BD0A02B09D0B02B3D
:100AF00007D0C02B05D0D02B03D0E02B01D0F02B9A
:100B000037D1754A936823F0F003A1680B439360D3
:100B1000236813F0010F73D06368032B2FD8636829
:100B2000012B32D09A1E012A36D96B4A126812F074
:100B3000020F00F0CA8068498A6822F0030213435A
:100B40008B60FFF79DFC06466368012B2BD0022BC0
:100B500038D0032B45D0604B9B6813F00C0F4FD05F
:100B6000FFF78EFC801B41F288339842F3D90320B3
:100B7000A4E740F24F21574800F0F0F8C1E740F2F7
:100B80005621544800F0EAF8C9E7534A126812F4B3
:100B9000003FD0D1012091E74F4A126812F0007F48
:100BA000C9D101208AE74C4B9B6803F00C03042B4E
:100BB00026D0FFF765FC801B41F288339842F2D9BA
:100BC00003207BE7444B9B6803F00C03082B17D0F2
:100BD000FFF756FC801B41F288339842F2D903207C
:100BE0006CE73D4B9B6803F00C030C2B08D0FFF720
:100BF00047FC801B41F288339842F2D903205DE71D
:100C0000334B1B6803F00F03AB4209D9EAB2304BF8
:100C10001A701B6803F00F03AB4201D001204DE7AF
:100C2000236813F0040F14D0E3685BB1B3F5805F61
:100C300008D0B3F5A05F05D0B3F5C05F02D0B3F51F
:100C4000E05F36D1244A936823F4E053E1680B4314
:100C50009360236813F0080F15D023695BB1B3F5D7
:100C6000805F08D0B3F5A05F05D0B3F5C05F02D0B8
:100C7000B3F5E05F23D1184A936823F460432169F8
:100C800043EAC1039360FFF7B7FE134B9B6803F081
:100C9000F003F02292FAA2F2B2FA82F2D3400F4AA3
:100CA000D35CD8400E4B18600F20FFF7B9FB002033
:100CB00004E74FF42D71074800F050F8C2E740F206
:100CC000BB21044800F04AF8D5E70120F6E600BF52
:100CD000003C0240BC1D000800380240AC1D00086A
:100CE0000C000020014B1868704700BF0C0000206A
:100CF000FEE7000008B5034800F052F80120FFF7B6
:100D0000F7FF00BFEC1D000808B503460C4A126847
:100D10005AB10B4A1068033323F003030344094A12
:100D2000934206D8064A136008BD054A0649116079
:100D3000EFE700F0A3FB0C2303604FF0FF30F3E775
:100D40007C00002000FC0020200100200123036023
:100D5000014B0B60704700BF0400002008B50A4635
:100D60000146024800F004F8FFF7C4FF001E000827
:100D70000FB400B583B004AB53F8042B019380216A
:100D8000064800F0B5FB002803DD0146034800F0EB
:100D900047F803B05DF804EB04B07047840000200E
:100DA00010B5044600F070FB0146204600F038F80C
:100DB0000121024800F034F810BD00BFC41E000835
:100DC0002DE9F04385B004460F4643560BB10E465D
:100DD0001EE0042528462146ABBE0446384605B031
:100DE000BDE8F08314F9011B04AA1A4402F8101C90
:100DF0000133AB42F6D304AA1344002203F8102CAB
:100E00004FF00408E94640464946ABBE8046761B93
:100E1000002EE3D03546102E28BF10250023E8E72A
:100E200008B5FFF7CDFF08BD08B500F093F8024AFA
:100E3000024B9A6008BD00BF0000000800ED00E012
:100E4000F8B504460D4617461E462748FFF790FFA3
:100E500021682648FFF78CFF61682548FFF788FF67
:100E6000A1682448FFF784FFE1682348FFF780FF6B
:100E700021692248FFF77CFF61692148FFF778FF6D
:100E8000A1692048FFF774FFE1691F48FFF770FF71
:100E90001E48FFF76DFF29461D48FFF769FF1D4CEF
:100EA000E16A1D48FFF764FF216B1C48FFF760FFF4
:100EB000E16B1B48FFF75CFF15F0800F0AD115F4BA
:100EC000004F0CD11748FFF753FF06991648FFF75C
:100ED0004FFFF8BD39461548FFF74AFFEFE73146A7
:100EE0001348FFF745FFEDE72C1E00083C1E0008E5
:100EF0004C1E00085C1E00086C1E00087C1E0008CA
:100F00008C1E00089C1E0008AC1E0008BC1E0008B9
:100F1000C81E000800ED00E0D81E0008E81E00080A
:100F2000F81E0008281F0008301F0008081F0008CE
:100F3000181F000883691A888A4201D00020704770
:100F40000268033A012A03D8023383610120704703
:100F5000002070470C4B1A6842F001021A60002111
:100F600099601A6822F0847222F480321A60074A6B
:100F70005A601A6822F480221A60D960044B4FF03C
:100F800000629A60704700BF0038024010300024B1
:100F900000ED00E0224B9B6803F00C03042B14D0FF
:100FA000082B16D01BB11F4B1F4A1A6002E01D4BC5
:100FB0001D4A1A601A4B9B68C3F303131B4AD15C8A
:100FC000184A1368CB4013607047164B184A1A60D2
:100FD000F0E7134B5A685B6803F03F0312F4800F8D
:100FE00013D0134AB2FBF3F20D4B5B68C3F38813C3
:100FF00003FB02F30A4A5268C2F301420132520073
:10100000B3FBF2F3074A1360D4E7074AB2FBF3F2EB
:10101000034B5B68C3F3881303FB02F3EAE700BFEB
:10102000003802400C0000200024F400741F000867
:1010300040787D0178B910B4074B18684900032443
:101040008C4020EA04001860186802FA01F101439C
:10105000196010BC704770470000024078B912B1A7
:10106000012A07D070471031012303FA01F1044B24
:1010700019607047012303FA01F1014B19607047B1
:101080001800024030BB10B4072914D9A1F108039D
:10109000DBB2072B1CD810480468A1F108039B00A1
:1010A0000F21994024EA01010160046802FA03F16A
:1010B000214301600CE0094B186889000F248C4023
:1010C00020EA04001860186802FA01F1014319606F
:1010D00010BC7047704700BF24000240200002404F
:1010E000174B1A6842F001021A601A6822F4803223
:1010F0001A601A6822F080721A60114B1B6813F094
:10110000020FFAD00F4B1A6822F001021A601A6817
:1011100022F002021A601A6822F0F0021A601A68BD
:1011200042F080021A601A6822F4E0521A601A68CB
:101130001A601A6822F460421A601A681A607047CE
:10114000003802400838024001280BD010B10228B4
:1011500010D070470B480368012202FA01F11943CD
:101160000160704708480368012202FA01F119433F
:101170000160704705480368012202FA01F1194332
:101180000160704730380240403802404438024025
:10119000014B47221A60704700300140054BD86070
:1011A000044B9B6813F0800FFAD1024BD868C0B291
:1011B000704700BF00300140064B1A6822F004025D
:1011C0001A601A6822F002021A601A6842F00102DC
:1011D0001A60704710E000E0054B5860044B1B6834
:1011E00013F4803FFAD0024B00229A60704700BF90
:1011F00010E000E008B5094B1B783BB9084B002212
:101200005A609A601A6822F001021A60054B1B6846
:1012100003B19847024B1B6808BD00BF08010020BE
:1012200010E000E00401002010B504460022114641
:101230001046FFF713FF2046FFF7B0FF10BD10B5B3
:101240000446012200210846FFF708FF2046FFF769
:10125000A5FF10BD08B5012200210846FFF7EAFEF0
:10126000012211460020FFF7E5FE01221146002071
:10127000FFF7F4FE6420FFF7AFFF002201211046C4
:10128000FFF7ECFE0120FFF7A7FF01221146002027
:10129000FFF7E4FE6420FFF79FFF002201211046C4
:1012A000FFF7DCFE6420FFF797FF012211460020C4
:1012B000FFF7D4FE0948FFF78FFF1120FFF7B4FFB7
:1012C0000748FFF789FF3A20FFF7AEFF0520FFF739
:1012D000B6FF2920FFF7A8FF08BD00BFC0D401005A
:1012E000F0490200F8B507460E4615461C462A206E
:1012F000FFF79AFF0020FFF7A2FF3846FFF79FFF96
:101300000020FFF79CFF3046FFF799FF2B20FFF7E7
:101310008BFF0020FFF793FF2846FFF790FF002088
:10132000FFF78DFF2046FFF78AFFF8BD38B5054669
:101330009F2300227F211046FFF7D4FF2C20FFF7C8
:1013400073FF00240AE035F81400000AFFF777FF66
:1013500015F81400FFF773FF0134A4B2B4F5A04FE1
:10136000F1D938BD70B594B000240194204B1A6CAB
:1013700042F080521A641B6C03F080530193019B6E
:1013800002941C4B1A6842F440421A601B6803F432
:1013900040430293029B0123089309934FF4800377
:1013A0000F93192310934FF4A873119304261296E8
:1013B0000723139302250E9508A8FFF7FFF80F23C4
:1013C0000393049505944FF480530693079429469C
:1013D00003A8FFF75BFBFFF785FC074BA3FB00307F
:1013E0008009FFF7B7F83046FFF7CAF814B070BDB0
:1013F0000038024000700040D34D621008B5FFF77E
:1014000025F8FFF7AFFFFFF7C5FD08BD08B5FFF7EB
:1014100067FE00210846FFF797FE0C210220FFF728
:1014200093FE022205210020FFF704FE0222042180
:101430000020FFF7FFFD022207210020FFF7FAFD41
:10144000052211460020FFF71DFE05220421002081
:10145000FFF718FE052207210020FFF713FEFFF714
:10146000ABFEFFF795FE0520FFF7F4FE0148FFF7FE
:101470005DFFFBE7841F000870470000014B186800
:10148000704700BF10000020034613F8012B002A0C
:10149000FBD1181A0138704730B5141E05469BB0B1
:1014A000184605DA8B232B604FF0FF301BB030BDA0
:1014B0004FF40273ADF80C3014BF04F1FF33234630
:1014C000029305934FF6FF7300910491ADF80E302F
:1014D00002461E9B6946284600F072F8431CBCBFBA
:1014E0008B232B60002CE1D0009B00221A70DDE7DB
:1014F00007B5009313460A46014603480068FFF704
:10150000CBFF03B05DF804FB100000202DE9F0478D
:101510008E689E4282460C469046994637D88A8904
:1015200012F4906F31D0256809696F1A656902233A
:1015300005EB450595FBF3F509F101033B449D429D
:1015400038BF1D46530530D5294600F07BFB0646C3
:1015500050B90C23CAF80030A38943F04003A3819B
:101560004FF0FF30BDE8F0873A46216900F0F8FA05
:10157000A38923F4906343F08003A381266165610E
:101580003E44ED1B2660A5604E464E4500D94E46B2
:1015900032464146206800F0EEFAA3689B1BA36028
:1015A00023681E4426600020DCE72A4600F0A4FBE6
:1015B00006460028E2D12169504600F0F5FAC8E756
:1015C0002DE9F04F9DB0804603938B891D060C4694
:1015D00016460FD50B696BB9402100F033FB206034
:1015E000206128B90C23C8F800304FF0FF30C7E065
:1015F000402363610023099320238DF82930302391
:101600008DF82A304FF0010B37463D4615F8013B67
:101610000BB1252B3ED1B7EB060A0BD05346324611
:1016200021464046FFF772FF013000F0A480099B7D
:10163000534409933B78002B00F09D8000234FF02A
:10164000FF32CDE90523049307938DF853301A93A5
:101650002F46052217F8011B4F4800F031FA049B72
:10166000D0B9D90644BF20228DF853201A0744BFB1
:101670002B228DF853202A782A2A15D0079A2F4634
:1016800000200A25394611F8013B303B092B4DD982
:10169000B8B10FE02F46B8E73F4A801A0BFA00F0C6
:1016A000184304903D46D3E7039A111D1268039135
:1016B000002A01DB079204E0524243F00203079242
:1016C00004933B782E2B0CD17B782A2B33D1039BB0
:1016D0001A1D1B680392002BB8BF4FF0FF3302376F
:1016E00005932E4D39780322284600F0E9F938B1E8
:1016F0004023401B03FA00F0049B0343013704938B
:10170000397827488DF8281006227E1C00F0D8F979
:10171000002838D0234B13BB039B073323F0070368
:1017200008330393099B4B4409936DE705FB023291
:1017300001200F46A6E700230137059319460A2525
:10174000384610F8012B303A092A03D9002BC8D0AB
:101750000591C6E705FB012101230746F0E703AB2E
:1017600000932246104B04A94046AFF30080B0F12D
:10177000FF3F8146D6D1A3895B063FF536AF099876
:101780001DB0BDE8F08F03AB00932246064B04A9C1
:10179000404600F081F8EAE784BF00088ABF0008ED
:1017A0008EBF0008000000000D1500082DE9F0476D
:1017B00091461F468A680B69DDF820809342B8BFC6
:1017C0001346C9F8003091F8432006460C4612B182
:1017D0000133C9F800302368990642BFD9F80030B8
:1017E0000233C9F80030256815F0060507D104F169
:1017F000190AE368D9F800209B1AAB4228DC94F858
:1018000043302268003318BF012392062DD404F11F
:10181000430239463046C047013020D02368E5688E
:10182000D9F8002003F00603042B08BFAD1AA36803
:1018300022690CBF25EAE57500259342C4BF9B1AB7
:10184000ED184FF000091A344D451AD1002008E078
:101850000123524639463046C047013003D14FF08C
:10186000FF30BDE8F0870135C3E7E1185A1C30208E
:1018700081F84300224494F8451082F84310023363
:10188000C5E70123224639463046C0470130E6D03D
:1018900009F10109D8E700002DE9F04301F1430CFB
:1018A0000C46097E85B06E291746064698460C9A66
:1018B00000F0B38022D8632936D00AD8002900F07E
:1018C000B980582900F0838004F1420584F8421061
:1018D00032E0642901D06929F6D120681368050631
:1018E00003F104012AD51B681160002B03DA2D22B5
:1018F0005B4284F843206F480A2239E0732900F0E4
:101900009D8008D86F2920D07029DDD1236843F04D
:101910002003236003E0752917D07829D4D17823D8
:1019200084F84530644855E01368191D1B68116040
:1019300004F1420584F8423001238CE01B681160F9
:1019400010F0400F18BF1BB2CFE713682568181DB1
:101950001060280601D51B6802E06806FBD51B88CD
:1019600054486F2914BF0A220822002184F843102A
:101970006568A560002DC0F29580216821F0040102
:101980002160002B3DD1002D40F08E806546082A55
:101990000BD12368DB0708D5236962689A42DEBF52
:1019A000302305F8013C05F1FF35ACEB050323615D
:1019B000CDF800803B4603AA21463046FFF7F6FEED
:1019C00001304DD14FF0FF3005B0BDE8F08339480C
:1019D00084F84510136821681D1D1B6815600A06F0
:1019E0000BD5CA0744BF41F0200121601BB9226812
:1019F00022F0200222601022B7E74D0648BF9BB2BA
:101A0000EFE76546B3FBF2F102FB1133C35C05F867
:101A1000013D0B460029F5D1B9E7136825686169D6
:101A2000181D106028061B6801D5196002E06A06BF
:101A3000FBD51980002323616546B9E71368191D9A
:101A400011601D6862680021284600F039F808B16D
:101A5000401B606063682361002384F84330A7E77C
:101A600023692A4639463046C0470130AAD0236848
:101A70009B0713D4E068039B9842B8BF1846A3E7BE
:101A800001234A4639463046C04701309AD00135D5
:101A9000E368039A9B1AAB42F2DCEBE7002504F102
:101AA0001909F5E7002BACD1037884F8423004F132
:101AB00042056CE795BF0008A6BF000800000000C3
:101AC00001F0FF01102A2BDB10F0070F08D010F8EF
:101AD000013B013A8B422DD010F0070F42B3F6D1F3
:101AE000F0B441EA012141EA014122F007047FF00C
:101AF00000070023F0E80256083C85EA010586EA63
:101B0000010685FA47F5A3FA87F586FA47F6A5FA9E
:101B100087F68EB9EED1F0BC01F0FF0102F00702AA
:101B200032B110F8013B013A83EA010313B1F8D155
:101B30000020704701387047002D06BF3546033836
:101B4000073815F0010F07D1013015F4807F02BF6F
:101B5000013015F4C03F0130F0BC0138704700BFC0
:101B600010B5431E0A44914200D110BD11F8014B3B
:101B700003F8014FF7E7884210B501EB020307D8DD
:101B8000421E99420AD011F8014B02F8014FF8E7C2
:101B90008342F5D98118D21AD34200D110BD13F86F
:101BA000014D01F8014DF7E738B50546002945D04C
:101BB00051F8043C0C1F002BB8BFE41800F0D2F819
:101BC0001F4A1368104633B9636014602846BDE8A5
:101BD000384000F0C8B8A3420CD92168621893427B
:101BE00004BF1A685B68636004BF52182260046017
:101BF000ECE713465A680AB1A242FAD91968581894
:101C0000A0420BD120680144581882421960DDD1EE
:101C1000106852685A6001441960D7E702D90C2352
:101C20002B60D3E7206821188A4204BF11685268EC
:101C3000626004BF091821605C60C7E738BD00BF5F
:101C40000C01002070B5CD1C25F0030508350C2DC6
:101C500038BF0C25002D064601DBA94203D90C2311
:101C60003360002070BD00F07DF8214A14682146E1
:101C700091B9204C23681BB9304600F063F820600E
:101C80002946304600F05EF8431C24D10C23336013
:101C9000304600F068F8E4E70B685B1B18D40B2BA8
:101CA0000FD90B60CD50CC18304600F05CF804F131
:101CB0000B00231D20F00700C31AD3D05A42E25074
:101CC000D0E78C424B6816BF636013600C46EBE7AD
:101CD0000C464968CCE7C41C24F00304A04205D09C
:101CE000211A304600F02EF80130CFD02560DBE716
:101CF0000C01002010010020F8B5074614460E46DE
:101D000021B91146BDE8F840FFF79CBF22B9FFF7A3
:101D10004BFF25462846F8BD00F026F8A0420FD21A
:101D200021463846FFF78EFF05460028F2D031469F
:101D30002246FFF715FF31463846FFF735FFE9E742
:101D40003546E7E738B5064C0023054608462360CC
:101D5000FEF7DAFF431C02D1236803B12B6038BDC4
:101D6000180100207047704751F8043C181F002BE1
:101D7000BCBF0B58C01870472E2E2F737973746533
:101D80006D2F7372632F73746D333266342D6861F7
:101D90006C2F73746D3332663478785F68616C5F72
:101DA000636F727465782E6300000000000000000D
:101DB0000102030401020304060708092E2E2F73F3
:101DC000797374656D2F7372632F73746D3332661C
:101DD000342D68616C2F73746D3332663478785F9C
:101DE00068616C5F7263632E6300000061626F72F2
:101DF0007428292C2065786974696E672E2E2E0050
:101E00006173736572745F706172616D28292066F9
:101E100061696C65643A2066696C652022257322CD
:101E20002C206C696E652025640A00005374616380
:101E30006B206672616D653A0A0000002052302006
:101E40003D2020253038580A000000002052312063
:101E50003D2020253038580A000000002052322052
:101E60003D2020253038580A000000002052332041
:101E70003D2020253038580A000000002052313221
:101E8000203D20253038580A00000000204C522008
:101E90003D2020253038580A000000002050432003
:101EA0003D2020253038580A0000000020505352B1
:101EB000203D20253038580A000000004653522F9C
:101EC0004641523A0A0000002043465352203D202A
:101ED00020253038580A00002048465352203D2023
:101EE00020253038580A00002044465352203D2017
:101EF00020253038580A00002041465352203D200A
:101F000020253038580A0000204D4D464152203DD2
:101F100020253038580A00002042464152203D20FA
:101F200020253038580A00004D6973630A0000000C
:101F3000204C522F4558435F52455455524E3D2038
:101F4000253038580A0000005B48617264466175AC
:101F50006C745D0A000000005B4275734661756C2D
:101F6000745D0A005B55736167654661756C745DED
:101F70000A0000000000000000000000010203044D
:101F800006070809FFFFFFFFFFFFFFFFFFFFFFFF3F
:101F9000FFFFFFFFFFFFFFFFFFFFFFFFFFFFFFFF51
:101FA000FFFFFFFFFFFFFFFFFFFFFFFFFFFFFFFF41
:101FB000FFFFFFFFFFFFFFFFFFFFFFFFFFFFFFFF31
:101FC000FFFFFFFFFFFFDFFFDEFFDEFFDEFFDFFFC4
:101FD000FFFFFFFFFFFFFFFFFFFFFFFFFFFFFFFF11
:101FE000FFFFDFFFDEFFDEFFDEFFFFFFFFFFFFFF84
:101FF000FFFFFFFFFFFFFFFFFFFFFFFFFFFFFFFFF1
:10200000FFFFFFFFFFFFFFFFFFFFFFFFFFFFFFFFE0
:10201000FFFFFFFFFFFFFFFFFFFFFFFFFFFFFFFFD0
:10202000FFFFFFFFFFFFFFFFFFFFFFFFFFFFFFFFC0
:10203000FFFFFFFFFFFFFFFFFFFFFFFFFFFFFFFFB0
:10204000FFFFFFFFFFFFFFFFFFFFFFFFFFFFFFFFA0
:10205000FFFFFFFFFFFFFFFFFFFFFFFFFFFFFFFF90
:10206000FFFFFFFFFFFFFFFFFFFFFFFFFFFFFFFF80
:10207000FFFFFFFFFFFFFFFFFFFFFFFFFFFFFFFF70
:10208000FFFFFFFFFFFFFFFFFFFFFFFFFFFFFFFF60
:10209000FFFFFFFFFFFFFFFFFFFFFFFFFFFFFFFF50
:1020A000FFFFFFFFFFFFFFFFFFFFFFFFFFFFFFFF40
:1020B000FFFFFFFFFFFFFFFFFFFFFFFFDFFFDFFF70
:1020C000FFFFFFFFFFFFFFFFFFFFFFFFFFFFFFFF20
:1020D000FFFFDEFFBEF79EF79EF79EF7BEFFDFFF16
:1020E000FFFFFFFFFFFFFFFFFFFFFFFFFFFFFFFF00
:1020F000DFFFFFFFFFFFFFFFFFFFFFFFFFFFFFFF10
:10210000FFFFFFFFFFFFFFFFFFFFFFFFFFFFFFFFDF
:10211000FFFFFFFFFFFFFFFFFFFFFFFFFFFFFFFFCF
:10212000FFFFFFFFFFFFFFFFFFFFFFFFFFFFFFFFBF
:10213000FFFFFFFFFFFFFFFFFFFFFFFFFFFFFFFFAF
:10214000FFFFFFFFFFFFFFFFFFFFFFFFFFFFFFFF9F
:10215000FFFFFFFFFFFFFFFFFFFFFFFFFFFFFFFF8F
:10216000FFFFFFFFFFFFFFFFFFFFFFFFFFFFFFFF7F
:10217000FFFFFFFFFFFFFFFFFFFFFFFFFFFFFFFF6F
:10218000FFFFFFFFFFFFFFFFFFFFFFFFFFFFFFFF5F
:10219000FFFFFFFFFFFFFFFFFFFFFFFFFFFFFFFF4F
:1021A000FFFFFFFFFFFFFFFFFFFFFFFFFFFFFFFF3F
:1021B000FFFFFFFFFFFFDFFFFFFFFFFFFFFFFFFF4F
:1021C000FFFF9DF7F9EE35E691DD0DD5AAD468D471
:1021D00026CC05D4E4CBE3CBE3CBE3CBE4CB05CCFB
:1021E00047CC89D4ECD490DD55E61AEFBEFFFFFF53
:1021F000FFFFFFFFDFFFFFFFFFFFFFFFFFFFFFFF0F
:10220000FFFFFFFFFFFFFFFFFFFFFFFFFFFFFFFFDE
:10221000FFFFFFFFFFFFFFFFFFFFFFFFFFFFFFFFCE
:10222000FFFFFFFFFFFFFFFFFFFFFFFFFFFFFFFFBE
:10223000FFFFFFFFFFFFFFFFFFFFFFFFFFFFFFFFAE
:10224000FFFFFFFFFFFFFFFFFFFFFFFFFFFFFFFF9E
:10225000FFFFFFFFFFFFFFFFFFFFFFFFFFFFFFFF8E
:10226000FFFFFFFFFFFFFFFFFFFFFFFFFFFFFFFF7E
:10227000FFFFFFFFFFFFFFFFFFFFFFFFFFFFFFFF6E
:10228000FFFFFFFFFFFFFFFFFFFFFFFFFFFFFFFF5E
:10229000FFFFFFFFFFFFFFFFFFFFFFFFFFFFFFFF4E
:1022A000FFFFFFFFFFFFFFFFFFFFFFFFFFFFFFFF3E
:1022B000FFFFFFFFFFFFFFFFFFFF5CF735E60ED5D7
:1022C00028CCA3CB80CB80D3A0DBC0DB00DC20E418
:1022D00020E440E440E440E460E440E440E440E4DE
:1022E00020E400E4E0DBC0DBA0D3A1D305CCECD438
:1022F00034E67DF7FFFFFFFFFFFFFFFFFFFFFFFF5C
:10230000FFFFFFFFFFFFFFFFFFFFFFFFFFFFFFFFDD
:10231000FFFFFFFFFFFFFFFFFFFFFFFFFFFFFFFFCD
:10232000FFFFFFFFFFFFFFFFFFFFFFFFFFFFFFFFBD
:10233000FFFFFFFFFFFFFFFFFFFFFFFFFFFFFFFFAD
:10234000FFFFFFFFFFFFFFFFFFFFFFFFFFFFFFFF9D
:10235000FFFFFFFFFFFFFFFFFFFFFFFFFFFFFFFF8D
:10236000FFFFFFFFFFFFFFFFFFFFFFFFFFFFFFFF7D
:10237000FFFFFFFFFFFFFFFFFFFFFFFFFFFFFFFF6D
:10238000FFFFFFFFFFFFFFFFFFFFFFFFFFFFFFFF5D
:10239000FFFFFFFFFFFFFFFFFFFFFFFFFFFFFFFF4D
:1023A000FFFFFFFFFFFFFFFFFFFFFFFFFFFFDFFF5D
:1023B000FFFFFFFF5CF7D3DD29CC62C340CB80D3A6
:1023C00000E440E480E480ECA0ECA0ECA0E4A0EC0D
:1023D000A0ECA0ECA0ECA0ECA0ECA0ECA0ECA0EC9D
:1023E000A0ECA0E4A0ECA0ECA0EC80EC40E400E4C5
:1023F000C0DBE3D3ECD4D8EEFFFFFFFFDFFFFFFF2E
:10240000FFFFFFFFFFFFFFFFFFFFFFFFFFFFFFFFDC
:10241000FFFFFFFFFFFFFFFFFFFFFFFFFFFFFFFFCC
:10242000FFFFFFFFFFFFFFFFFFFFFFFFFFFFFFFFBC
:10243000FFFFFFFFFFFFFFFFFFFFFFFFFFFFFFFFAC
:10244000FFFFFFFFFFFFFFFFFFFFFFFFFFFFFFFF9C
:10245000FFFFFFFFFFFFFFFFFFFFFFFFFFFFFFFF8C
:10246000FFFFFFFFFFFFFFFFFFFFFFFFFFFFFFFF7C
:10247000FFFFFFFFFFFFFFFFFFFFFFFFFFFFFFFF6C
:10248000FFFFFFFFFFFFFFFFFFFFFFFFFFFFFFFF5C
:10249000FFFFFFFFFFFFFFFFFFFFFFFFFFFFFFFF4C
:1024A000FFFFFFFFFFFFFFFFFFFFFFFFFFFFFFFF3C
:1024B000B8EE8CCC42C320CBC0DB40E480EC80E49F
:1024C00080E4A0E4A0E4C0ECC0ECE0ECE0EC00EDC3
:1024D00000ED20ED20ED20ED40ED20ED20ED20ED94
:1024E00000ED00EDE0ECC0ECA0ECA0ECA0ECA0EC6A
:1024F000A0EC80EC00E4C0D3CAD4F9EEFFFFFFFFEC
:10250000FFFFFFFFFFFFFFFFFFFFFFFFFFFFFFFFDB
:10251000FFFFFFFFFFFFFFFFFFFFFFFFFFFFFFFFCB
:10252000FFFFFFFFFFFFFFFFFFFFFFFFFFFFFFFFBB
:10253000FFFFFFFFFFFFFFFFFFFFFFFFFFFFFFFFAB
:10254000FFFFFFFFFFFFFFFFFFFFFFFFFFFFFFFF9B
:10255000FFFFFFFFFFFFFFFFFFFFFFFFFFFFFFFF8B
:10256000FFFFFFFFFFFFFFFFFFFFFFFFFFFFFFFF7B
:10257000FFFFFFFFFFFFFFFFFFFFFFFFFFFFFFFF6B
:10258000FFFFFFFFFFFFFFFFFFFFFFFFFFFFFFFF5B
:10259000FFFFFFFFFFFFFFFFFFFFFFFFFFFFFFFF4B
:1025A000FFFFFFFFFFFFFFFFFFFFFFFFF9EE4ACC3A
:1025B000E0C260D320E480E480E480E4A0E4C0ECE6
:1025C000E0EC00ED20ED40ED80F5C0F5E0F500F623
:1025D00020F640F640F660F660F660F660F640F6EB
:1025E00040F620F600F6E0F5A0F560ED20EDE0EC19
:1025F000C0ECA0E4A0ECA0EC20E4E0D38FE5DEFF8B
:10260000FFFFFFFFFFFFFFFFFFFFFFFFFFFFFFFFDA
:10261000FFFFFFFFFFFFFFFFFFFFFFFFFFFFFFFFCA
:10262000FFFFFFFFFFFFFFFFFFFFFFFFFFFFFFFFBA
:10263000FFFFFFFFFFFFFFFFFFFFFFFFFFFFFFFFAA
:10264000FFFFFFFFFFFFFFFFFFFFFFFFFFFFFFFF9A
:10265000FFFFFFFFFFFFFFFFFFFFFFFFFFFFFFFF8A
:10266000FFFFFFFFFFFFFFFFFFFFFFFFFFFFFFFF7A
:10267000FFFFFFFFFFFFFFFFFFFFFFFFFFFFFFFF6A
:10268000FFFFFFFFFFFFFFFFFFFFFFFFFFFFFFFF5A
:10269000FFFFFFFFFFFFFFFFFFFFFFFFFFFFFFFF4A
:1026A000FFFFFFFFFFFFFFFFFFFF2FD5E1BA60D362
:1026B00040E480EC60E480E4C0ECE0EC00ED40ED50
:1026C00080F5E0F520F660F680F6A0FEA0FEC0FEE4
:1026D000C0FEC0F6C0FEC0FEC0FEC0FEC0FEC0FE12
:1026E000C0FEA0FEA0F6A0F680F660F640F600F66A
:1026F000A0F540EDE0ECA0ECA0EC80EC00E4E8DC20
:102700009CF7FFFFFFFFFFFFFFFFFFFFFFFFFFFF44
:10271000FFFFFFFFFFFFFFFFFFFFFFFFFFFFFFFFC9
:10272000FFFFFFFFFFFFFFFFFFFFFFFFFFFFFFFFB9
:10273000FFFFFFFFFFFFFFFFFFFFFFFFFFFFFFFFA9
:10274000FFFFFFFFFFFFFFFFFFFFFFFFFFFFFFFF99
:10275000FFFFFFFFFFFFFFFFFFFFFFFFFFFFFFFF89
:10276000FFFFFFFFFFFFFFFFFFFFFFFFFFFFFFFF79
:10277000FFFFFFFFFFFFFFFFFFFFFFFFFFFFFFFF69
:10278000FFFFFFFFFFFFFFFFFFFFFFFFFFFFFFFF59
:10279000FFFFFFFFFFFFFFFFFFFFFFFFFFFFFFFF49
:1027A000FFFFFFFFFFFF9DF7E8C3E0C200E460E426
:1027B00060E4A0E4C0EC00ED20ED60EDE0F540F653
:1027C000A0F6C0FEC0FEC0FEE0FEE0FEE0FE00FFA0
:1027D00000FF00FF00FF00FF00FF00FF00FF00FF01
:1027E00000FF00FFE0FEE0FEC0FEC0FEA0F680F6A7
:1027F00080F640F600F6A0F520EDA0ECA0EC40E459
:10280000C5E49BFFFFFFFFFFFFFFFFFFFFFFFFFF91
:10281000FFFFFFFFFFFFFFFFFFFFFFFFFFFFFFFFC8
:10282000FFFFFFFFFFFFFFFFFFFFFFFFFFFFFFFFB8
:10283000FFFFFFFFFFFFFFFFFFFFFFFFFFFFFFFFA8
:10284000FFFFFFFFFFFFFFFFFFFFFFFFFFFFFFFF98
:10285000FFFFFFFFFFFFFFFFFFFFFFFFFFFFFFFF88
:10286000FFFFFFFFFFFFFFFFFFFFFFFFFFFFFFFF78
:10287000FFFFFFFFFFFFFFFFFFFFFFFFFFFFFFFF68
:10288000FFFFFFFFFFFFFFFFFFFFFFFFFFFFFFFF58
:10289000FFFFFFFFFFFFFFFFFFFFFFFFFFFFFFFF48
:1028A000FFFFFFFF9DF7A6C320CB61EC60E480E44F
:1028B000C0EC00ED20ED80ED00F680F6C0FEC0FE1D
:1028C000E0FEE0FE00FF00FF20FF20FF20FF40FFB2
:1028D00040FF40FF40FF40FF40FF40FF40FF40FF00
:1028E00040FF40FF20FF20FF20FF00FF00FFE0FE31
:1028F000C0F6A0F680F660F620F6A0F500EDA0EC9C
:1029000040E406E5BDFFFFFFFFFFFFFFFFFFFFFF06
:10291000FFFFFFFFFFFFFFFFFFFFFFFFFFFFFFFFC7
:10292000FFFFFFFFFFFFFFFFFFFFFFFFFFFFFFFFB7
:10293000FFFFFFFFFFFFFFFFFFFFFFFFFFFFFFFFA7
:10294000FFFFFFFFFFFFFFFFFFFFFFFFFFFFFFFF97
:10295000FFFFFFFFFFFFFFFFFFFFFFFFFFFFFFFF87
:10296000FFFFFFFFFFFFFFFFFFFFFFFFFFFFFFFF77
:10297000FFFFFFFFFFFFFFFFFFFFFFFFFFFFFFFF67
:10298000FFFFFFFFFFFFFFFFFFFFFFFFFFFFFFFF57
:10299000FFFFFFFFFFFFFFFFFFFFFFFFFFFFFFFF47
:1029A000FFFFFFFF29CC40D360EC60E480E4E0EC63
:1029B00020ED60EDC0F560F6A0FEC0FEE0FE00FF79
:1029C00020FF40FF40FF40FF60FF60FF60FF60FFAF
:1029D00060FF60FF80FF60FF60FF80FF80FF60FF9F
:1029E00060FF60FF60FF60FF60FF60FF40FF40FF2F
:1029F00020FF00FFE0FEA0FE80F660F600F680F506
:102A0000E0EC40E4AAE5FFFFFFFFFFFFFFFFFFFF51
:102A1000FFFFFFFFFFFFFFFFFFFFFFFFFFFFFFFFC6
:102A2000FFFFFFFFFFFFFFFFFFFFFFFFFFFFFFFFB6
:102A3000FFFFFFFFFFFFFFFFFFFFFFFFFFFFFFFFA6
:102A4000FFFFFFFFFFFFFFFFFFFFFFFFFFFFFFFF96
:102A5000FFFFFFFFFFFFFFFFFFFFFFFFFFFFFFFF86
:102A6000FFFFFFFFFFFFFFFFFFFFFFFFFFFFFFFF76
:102A7000FFFFFFFFFFFFFFFFFFFFFFFFFFFFFFFF66
:102A8000FFFFFFFFFFFFFFFFFFFFFFFFFFFFFFFF56
:102A9000FFFFFFFFFFFFFFFFFFFFFFFFFFFFFFFF46
:102AA000FFFFD2DD20CB60EC60E4A0E4E0EC20EDA1
:102AB00080F520F6A0F6C0F6E0FE00FF20FF40FF04
:102AC00040FF60FF60FF80FF80FF80FF80FF80FF8E
:102AD00080FF80FF80FF80FF80FF80FF80FF80FFFE
:102AE00080FF80FF80FF80FF80FF80FF80FF60FF0E
:102AF00060FF40FF20FF20FFE0FEA0F660F640F6FA
:102B0000C0F500ED60E4D4F6FFFFFFFFFFFFFFFF1D
:102B1000FFFFFFFFFFFFFFFFFFFFFFFFFFFFFFFFC5
:102B2000FFFFFFFFFFFFFFFFFFFFFFFFFFFFFFFFB5
:102B3000FFFFDFFFDFFFDFFFDFFFDFFFDFFFDFFF85
:102B4000DFFFDFFFDFFFDFFFDFFFFFFFFFFFFFFF35
:102B5000FFFFFFFFFFFFFFFFFFFFFFFFFFFFFFFF85
:102B6000FFFFFFFFFFFFFFFFFFFFFFFFFFFFFFFF75
:102B7000FFFFFFFFFFFFFFFFFFFFFFFFFFFFFFFF65
:102B8000FFFFFFFFFFFFFFFFFFFFFFFFFFFFFFFF55
:102B9000FFFFFFFFFFFFFFFFFFFFFFFFFFFFFFFF45
:102BA000DEFFE5CB00E480ECA0ECE0EC40EDA0ED36
:102BB00060F6C0FEC0FEE0FE20FF40FF40FF60FF69
:102BC00060FF80FF80FFA0FF80FFA0FFA0FFA0FFAD
:102BD000A0FFA0FFA0FFA0FFA0FFA0FFA1FFA1FFFB
:102BE000A1FFA1FFA1FFA1FFA1FFA1FF81FFA0FF06
:102BF00080FF80FF60FF60FF40FF00FFC0FE80F6A7
:102C000040F6E0F500ED25E5DEFFFFFFFFFFFFFFEB
:102C1000FFFFFFFFFFFFFFFFFFFFFFFFFFFFFFFFC4
:102C2000FFFFDFFFDFFFFFFFFFFFFFFFFFFFFFFFF4
:102C3000FFFFFFFFFFFFFFFFFFFFFFFFFFFFFFFFA4
:102C4000FFFFFFFFFFFFFFFFFFFFFFFFFFFFFFFF94
:102C5000FFFFFFFFFFFFDFFFDFFFFFFFFFFFFFFFC4
:102C6000FFFFFFFFFFFFFFFFFFFFFFFFFFFFFFFF74
:102C7000FFFFFFFFFFFFFFFFFFFFFFFFFFFFFFFF64
:102C8000FFFFFFFFFFFFFFFFFFFFFFFFFFFFFFFF54
:102C9000FFFFFFFFFFFFFFFFFFFFFFFFFFFFFFFF44
:102CA000B7EE80CB80EC80ECE0EC40ED80ED60F6A0
:102CB000E0FEE0FE00FF20FF40FF60FF80FF80FF9E
:102CC00080FFA0FFA0FFA0FFA1FFA1FFA1FFA1FF28
:102CD000A1FFA1FFA2FFA2FFA2FFA2FFA2FFA2FFEE
:102CE000A2FFA2FFA2FFA2FFA2FFA2FFA2FFA2FFDC
:102CF000A2FF81FF81FF81FF60FF40FF20FFE0FE18
:102D000080F620F6C0F5E0E4F5F6FFFFFFFFFFFFD9
:102D1000FFFFFFFFFFFFFFFFFFFFDFFFFFFFFFFFE3
:102D2000FFFFFFFFFFFFFFFFFFFFBEF73CF7D9EEFE
:102D300077E615E6D3DD91DD70DD4FDD4FDD6FDD2C
:102D40006FDD90E5D1DDD2E534E676EED8EE1BF707
:102D50007DF7DFFFFFFFFFFFFFFFFFFFFFFFDFFF4D
:102D6000FFFFFFFFFFFFFFFFFFFFFFFFFFFFFFFF73
:102D7000FFFFFFFFFFFFFFFFFFFFFFFFFFFFFFFF63
:102D8000FFFFFFFFFFFFFFFFFFFFFFFFFFFFFFFF53
:102D9000FFFFFFFFFFFFFFFFFFFFFFFFDFFFFFFF63
:102DA000D1E5A0D3A0ECA0EC20ED60ED20F6E0FE94
:102DB00000FF20FF40FF60FF60FF80FFA0FFA0FF3B
:102DC000A1FFA1FF81FFA2FFA2FFA2FFA3FFA3FF1C
:102DD000A3FFA3FFA3FFA3FFA4FFA4FFA4FFA4FFDF
:102DE000A4FFA4FFA4FFA4FFA4FFA4FFA3FFA3FFCD
:102DF000A3FFA3FFA2FFA2FF81FF81FF60FF20FFCF
:102E0000E0FE80F620F680ED2CEEFFFFFFFFFFFFD7
:102E1000FFFFFFFFDFFFFFFFFFFFFFFFFFFFBEF72B
:102E2000FAEE15E630D56BD4E7CBA4CB82D380D3B2
:102E3000A0D3C0DBE0DB00E420E420EC40E440E48D
:102E400040EC40EC40E420E420E420E400DC01DC41
:102E500023DC45D4C9DC6FDD76E65BF7FFFFFFFFBF
:102E6000FFFFFFFFDFFFFFFFFFFFFFFFFFFFFFFF92
:102E7000FFFFFFFFFFFFFFFFFFFFFFFFFFFFFFFF62
:102E8000FFFFFFFFFFFFFFFFFFFFFFFFFFFFFFFF52
:102E9000FFFFFFFFFFFFFFFFFFFFFFFFDFFFFFFF62
:102EA000B0DDC0DBA0ECE0EC40EDC0F5A0FE00FF23
:102EB00020FF40FF60FF80FF80FFA0FF81FFA1FF98
:102EC000A2FFA2FFA3FFA3FFA4FFA4FFA4FFA5FFEF
:102ED000A5FFA5FFA5FFA6FFA6FFA6FFA6FFA6FFCD
:102EE000A6FFA6FFA6FFA6FFA6FFA5FFA5FFA5FFBD
:102EF000A4FFA4FFA3FFA3FFA2FF81FF81FF60FF48
:102F000020FFC0F660F6E0F5C5EDDEFFFFFFDFFF56
:102F1000FFFFFFFFFFFFDFF7D9EE92DD6AD4A5CBFD
:102F200041CB20D360DBC0E320EC60F4A0F4C0F41C
:102F3000E0F4E0F400F500F500F500F500F500F52B
:102F400000F500F520F520F520F520F500F500F559
:102F5000E0F4C0F480EC40E400E402DC67D46FDD10
:102F6000B8EEDFFFFFFFFFFFFFFFFFFFFFFFFFFFE9
:102F7000FFFFFFFFFFFFFFFFFFFFFFFFFFFFFFFF61
:102F8000FFFFFFFFFFFFFFFFFFFFFFFFFFFFFFFF51
:102F9000FFFFFFFFFFFFFFFFFFFFFFFFFFFFFFFF41
:102FA00034E6A0D3C0EC00ED60ED00F6E0FE20FFBB
:102FB00040FF60FF60FF80FFA1FFA1FFA2FFA3FF12
:102FC000A3FFA4FFA4FFA5FFA6FFA6FFA6FFA7FFE0
:102FD000A7FFA7FFA8FFA8FFA8FFA8FFA8FFC8FF9B
:102FE000C8FFA8FFA8FFA8FFA7FFA7FFA7FFA6FF8E
:102FF000A6FFA5FFA4FFA3FFA2FFA2FF81FF61FF21
:1030000040FF00FFA0F620F642E57BF7FFFFFFFF41
:10301000BEF777EEEDDCC5D320D340DB80E3E0EBF9
:1030200040F460F480F4A0F4C0F4C0F4E0F4E0F400
:1030300000F500F520F520F520F540F540F540F5C8
:1030400040F540F540F540F540F540F520F520F518
:1030500020F520F520F520F520F500F5A0F440E45A
:1030600000DC46D490DD1BF7FFFFFFFFDFFFFFFF13
:10307000FFFFFFFFFFFFFFFFFFFFFFFFFFFFFFFF60
:10308000FFFFFFFFFFFFFFFFFFFFFFFFFFFFFFFF50
:10309000FFFFFFFFFFFFFFFFFFFFFFFFFFFFFFFF40
:1030A0007CF7E2CBA0EC20ED80F520F620FF40FF7E
:1030B00060FF60FF80FFA1FFA1FFA2FFA3FFA4FFAD
:1030C000A5FFA6FFA6FFA7FFC8FFA8FFA9FFA9FFAE
:1030D000C9FFCAFFCAFFCAFFCAFFCAFFCAFFCAFFA9
:1030E000CAFFCAFFAAFFA9FFC9FFC9FFC8FFC8FFDF
:1030F000C6FFA5FFA5FFA7FFA7FFA4FFA2FF81FFB3
:1031000060FF20FFC0FE60F601E53AF73AF72EE5D2
:1031100085D3E0D200E380EBE0EB20EC40EC80ECE8
:1031200080F4C0F4E0F400F520F540F560F560F5BA
:1031300080F580F5A0F5A0F5A0F5C0F5C0F5C0F5C7
:10314000C0F5E0F5E0F5E0F5C0F5C0F5C0F5A0F597
:10315000A0F580F580F560F540F520F520F540F507
:1031600020FDC0F440E4E1D3EBD4F9EEFFFFFFFF14
:10317000DFFFFFFFFFFFFFFFFFFFFFFFFFFFFFFF7F
:10318000FFFFFFFFFFFFFFFFFFFFFFFFFFFFFFFF4F
:10319000FFFFFFFFFFFFFFFFFFFFFFFFFFFFFFFF3F
:1031A000FFFF4DDD00DC40F580F500F600FF60FF1D
:1031B00060FF80FF80FF81FFA2FFA3FFA4FFA5FFA8
:1031C000A6FFA7FFC8FFC9FFC9FFCAFFCBFFCBFF00
:1031D000CBFFCBFFCCFFACFFACFFACFFACFFACFF39
:1031E000CCFFACFFCBFFCBFFCAFFC9FFA9FFC9FFD4
:1031F000AAFFCDFFCFFFD1FFD1FFCCFFA2FFA1FFE0
:1032000080FF40FFE0FE80FE01E506DC01DBA0DA86
:1032100020E380E3C0EB00EC40EC80ECC0F400F570
:1032200040F540F560F580F5A0F5C0F5E0F500F655
:1032300020F640F660FE60FE80FE80FEA0FEA0FE4E
:10324000A0FEA0FEA0FEA0FEA0FEA0FE80FE80FECE
:1032500060F640F620F600F6E0F5C0F580F560F582
:1032600060F540F560F540F580EC01D40CD57CF7B5
:10327000FFFFFFFFFFFFFFFFFFFFFFFFFFFFFFFF5E
:10328000FFFFFFFFFFFFFFFFFFFFFFFFFFFFFFFF4E
:10329000FFFFFFFFFFFFFFFFFFFFFFFFFFFFFFFF3E
:1032A000FFFF9CF743D4E0EC80EDE0F5A0F660FF73
:1032B00080FF80FF81FFA2FFA3FFA4FFA5FFA6FF61
:1032C000C8FFC9FFCAFFCBFFABFFACFFACFFCDFF10
:1032D000CDFFCDFFCDFFCDFFCDFFCDFFCEFFCDFF8D
:1032E000CDFFCDFFACFFCCFFCDFFCEFFD0FFD1FF98
:1032F000D2FFD3FFD3FFD2FFD0FFA7FFA2FFA1FFD2
:1033000080FF60FF00FFA0FEA0DCA0D200E340E34E
:1033100060E3C0E320EC80ECE0F420F560F580F59C
:10332000C0F5E0F520FE40F680FEA0FEA0FEC0FE47
:10333000C0FEE0FEE0FEE0FEE0FEE0FEE0FEE0FEBD
:10334000E0FEE0FEE0FEE0FEE0FEE0FEE0FEE0FE8D
:10335000E0FEE0FEC0FEC0FEA0FE80FE60FE20F6A5
:1033600000F6C0F5A0F580F580F560FD80EC03D493
:1033700055E6FFFFFFFFFFFFFFFFFFFFFFFFFFFF20
:10338000FFFFFFFFFFFFFFFFFFFFFFFFFFFFFFFF4D
:10339000FFFFFFFFFFFFFFFFFFFFFFFFFFFFFFFF3D
:1033A000FFFFFFFFD6EE40D460F5C0F540F600F712
:1033B000A0FF80FF81FFA2FFA3FFA5FFA6FFC7FF1D
:1033C000A9FFCAFFCBFFCCFFACFFCDFFCDFFCEFFE7
:1033D000CEFFCEFFCEFFCEFFCEFFCEFFCEFFCEFF85
:1033E000CFFFD0FFD1FFD2FFD3FFD4FFD4FFD4FF54
:1033F000D3FFD2FFCFFFCBFFA5FFC2FFC2FFA1FFCC
:1034000080FF60FF00FF80F640D4E0DA20E360E355
:10341000C0EB40ECC0EC20F560F5A0F500F640F6FE
:1034200080FEA0FEC0FEC0FEE0FEE0FEE0FEE0FE8C
:1034300000FF00FF00FF20FF20FF20FF20FF20FFF4
:1034400020FF20FF20FF20FF20FF20FF20FF00FFA4
:1034500000FF00FF00FF00FFE0FEE0FEE0FEC0FE18
:10346000C0FEA0F660F600FEC0F5A0F5A0FD40F598
:1034700000DC6FDDFFFFFFFFFFFFFFFFFFFFFFFF30
:10348000FFFFFFFFFFFFFFFFFFFFFFFFFFFFFFFF4C
:10349000FFFFFFFFFFFFFFFFFFFFFFFFFFFFFFFF3C
:1034A000FFFFFFFFFFFF52E680DC80F500F660F6CD
:1034B00020FFA1FFA1FFA2FFA4FFA5FFA6FFA8FF79
:1034C000AAFFCBFFCCFFCDFFCEFFCEFFCEFFCEFFBE
:1034D000CFFFCFFFCFFFD0FFD0FFD1FFD2FFD3FF71
:1034E000D4FFD4FFD4FFD4FFD4FFD3FFD1FFCFFF4D
:1034F000CCFFC9FFC6FFC4FFA4FF43F723F722F7A1
:1035000060FF60FFE0FE60F6C0D300DB80E3E0EB2D
:1035100060ECE0F460F5C0F520F680F6C0FEC0FE79
:10352000E0FEE0FEE0FE00FF00FF00FF20FF20FFC6
:1035300020FF20FF20FF20FF40FF40FF40FF40FF13
:1035400040FF40FF40FF40FF40FF40FF40FF40FF83
:1035500040FF40FF20FF20FF20FF20FF00FF00FF73
:1035600000FFE0FEE0FEC0FEA0FE40FEE0F5C0F57C
:10357000A0FD60E44CDDFFFFFFFFFFFFFFFFFFFF4B
:10358000FFFFFFFFFFFFFFFFFFFFFFFFFFFFFFFF4B
:10359000FFFFFFFFFFFFFFFFFFFFFFFFFFFFFFFF3B
:1035A000FFFFFFFFFFFFFFFF51E6A0DCA0F520F6C5
:1035B00080F600F781FFA3FFA4FFA5FFA7FFA9FFE7
:1035C000CBFFCCFFCDFFCEFFCFFFCFFFCFFFCFFF95
:1035D000CFFFD1FFD1FFD2FFD3FFD3FFD2FFD2FF66
:1035E000D1FFD0FFF0FFEFFFEDFFEBFFC9FFA8FF1A
:1035F00067F706F7C5F6A5EEA4EEE3F642F781FFFE
:1036000080FF40FFE0FEE0F580CB60E3E0EB80EC84
:1036100000F5A0F540F680F6C0FEE0FEE0FEE0FE1C
:1036200000FF20FF20FF20FF20FF40FF40FF40FF62
:1036300040FF40FF60FF60FF60FF60FF61FF61FFD0
:1036400061FF61FF61FF61FF61FF61FF61FF61FF7A
:1036500061FF61FF41FF41FF40FF40FF40FF20FF4E
:1036600020FF20FF00FF00FFE0FEC0FEA0FE40F6AE
:10367000E0F5E0FDC0E4AEE5FFFFFFFFFFFFFFFF69
:10368000FFFFFFFFFFFFFFFFFFFFFFFFFFFFFFFF4A
:10369000FFFFFFFFFFFFFFFFFFFFFFFFFFFFFFFF3A
:1036A000FFFFFFFFFFFFFFFFFFFF94E6A1D480EDC8
:1036B00060F680F6E1F642FFA3FFC5FFC7FFC8FF33
:1036C000CAFFCCFFCDFFCDFFCEFFCEFFCEFFCEFF9A
:1036D000CEFFCEFFCEFFEEFFEDFFEDFFCDFFCCFF27
:1036E000ACFF6BFF4AF729F7C8F6A7EE86EE66EE49
:1036F00085EEC5F604F764FFA3FFC2FFA1FFA0FF9C
:1037000060FF20FFC0FE60ED40CBE0EB80EC20F5D9
:10371000E0F560F6C0FEC0FEE0FE00FF00FF20FF07
:1037200020FF40FF40FF40FF40FF40FF60FF60FF81
:1037300060FF60FF80FF80FF81FF81FF81FF82FFCC
:1037400082FF82FF82FF82FF83FF83FF83FF83FF6D
:1037500083FF82FF82FF82FF62FF61FF61FF41FF03
:1037600040FF40FF20FF20FF20FFE0FEE0FEC0FE04
:10377000A0FE20F6E0FDC0E4B5EEFFFFFFFFFFFF77
:10378000FFFFFFFFFFFFFFFFFFFFFFFFFFFFFFFF49
:10379000FFFFFFFFFFFFFFFFFFFFFFFFFFFFFFFF39
:1037A000FFFFFFFFFFFFFFFFFFFFFFFF18EFE4D466
:1037B00040ED60F6A1F6C1F6E2FE23FF65FF87FF4C
:1037C000A8FFA9FFAAFF8BFF8BFF8BFF6BFF6BFF8F
:1037D0004AF72AF72AF70AF7E9F6C9EEA8EE88EEC3
:1037E00088EE87EEA7EEC6F6E6F626F765FF85FFBC
:1037F000C5FFC4FFC3FFA2FF80FF80FFA0FF80FFC3
:1038000060FF00FF80FEA0DC60D380F420F5E0F5CF
:1038100080F6A0FEE0FEE0FE00FF20FF20FF40FF5C
:1038200040FF40FF60FF60FF60FF80FF80FF80FF80
:1038300080FF80FF81FF81FF81FF82FF82FFA3FF66
:10384000A3FFA3FF83FFA4FFA4FFA4FFA4FFA4FF83
:10385000A4FF83FF84FF83FF83FF83FF82FF62FF58
:1038600062FF41FF41FF41FF20FF20FF00FFE0FE1C
:10387000E0FEC0FE40F6E0F524DDBDFFFFFFFFFFE8
:10388000FFFFFFFFFFFFFFFFFFFFFFFFFFFFFFFF48
:10389000FFFFFFFFFFFFFFFFFFFFFFFFFFFFFFFF38
:1038A000FFFFFFFFFFFFFFFFFFFFFFFFFFFF9DF792
:1038B0006ADD00DD20F6A1FEC1F6C2F6C3F6E4FE25
:1038C000E5F6E5F6C6F6E6F648F748F728F728F7EE
:1038D00028F728F728F748F748F768F788FF88FFA0
:1038E000A8FFC9FFEAFFEBFFEDFFEEFFEEFFEFFFE2
:1038F000CFFFCEFFCEFFADFFABFF85FF80FF60FFA8
:1039000020FFC0F620F6E0D3E0DB00F5C0F560F65E
:10391000A0FEC0FEE0FE00FF20FF40FF40FF40FF92
:1039200060FF80FF60FF80FF80FF80FF80FF80FFDF
:10393000A0FFA1FFA1FFA2FFA2FFA3FFA3FFA3FF80
:10394000A4FFA4FFA5FFA5FFA5FFA5FFA5FFA5FF59
:10395000A5FFA5FFA5FFA5FFA4FFA4FF84FF84FF8B
:1039600083FF83FF62FF62FF42FF41FF21FF00FFF1
:1039700000FFE0FEC0FE80FE60ED71EEFFFFFFFF86
:10398000FFFFFFFFFFFFFFFFFFFFFFFFFFFFFFFF47
:10399000FFFFFFFFFFFFFFFFFFFFFFFFFFFFFFFF37
:1039A000FFFFFFFFFFFFFFFFFFFFFFFFFFFFFFFF27
:1039B000FFFF73E602DDE0EDC1FEE2F6E2F6E3F6BC
:1039C000E4FEE5FEE5FE46FFC8FFC8FFC8FFC8FFEE
:1039D000C8FFC8FFC7FFC7FFC7FFC7FFC7FFC7FFB5
:1039E000CBFFADFF6DFF2CF7CBF68AF668F668F6D5
:1039F00067F687F6C6F607FF28FF45FF40FF20FF62
:103A0000E0FE60F680ED80CB80EC40F500F680F6BD
:103A1000C0FEE0FE00FF20FF20FF40FF40FF60FFF0
:103A200060FF80FF80FF80FF80FF80FFA0FFA0FF7E
:103A3000A1FFA1FFA2FFA3FFA3FFA3FFA4FFA4FF79
:103A4000A5FFA5FFA6FFA6FFA6FFA7FFA7FFA7FF4D
:103A5000A7FFA7FFA7FFA6FFA6FFA6FFA6FFA5FF3C
:103A6000A5FF85FF84FF83FF63FF62FF42FF21FF05
:103A700021FF01FFE0FEC0FE60FEC7E5DFFFFFFFA4
:103A8000FFFFFFFFFFFFFFFFFFFFFFFFFFFFFFFF46
:103A9000FFFFFFFFFFFFFFFFFFFFFFFFFFFFFFFF36
:103AA000FFFFFFFFFFFFFFFFFFFFFFFFFFFFFFFF26
:103AB000FFFFFFFF7BF7CBDD80E580F602FFE2FE34
:103AC000E3F604FF04FF24F786FFC6FFA6FFA5FF69
:103AD000A5FFA5FFA5FFA5FFA5FFA4FF64FFC5F6F1
:103AE000C6E5C3DC41D4C0CBA0CBA0CBA0CBA0CB40
:103AF000C0CBC0D3E0D320DCA0DC60ED00F660F6E4
:103B000040F6E0F5C0E460CBE0F440F500F6A0F646
:103B1000C0FE00FF00FF20FF40FF60FF80FF60FF4E
:103B200000FFE0FE60FFA0FF80FF80FFA0FFA1FF7D
:103B3000A1FFA2FFA3FFA3FFA4FFA4FFA5FFA5FF72
:103B4000A6FFA7FFC7FFC7FFC8FFC8FFC8FFC8FF82
:103B5000A8FFA8FFC8FFA8FFC8FFA8FFA7FFA7FFEF
:103B6000A7FFA6FFA6FF85FF85FF84FF63FF43FF36
:103B700042FF21FF01FFE0FEC0FE02F67AF7FFFFE1
:103B8000FFFFFFFFFFFFFFFFFFFFFFFFFFFFFFFF45
:103B9000FFFFFFFFFFFFFFFFFFFFFFFFFFFFFFFF35
:103BA000FFFFFFFFFFFFFFFFFFFFFFFFFFFFFFFF25
:103BB000FFFFFFFFFFFFFFFFF7EEA7DD00EEC0FEF8
:103BC00002FF02FF03FF03FF23FF64FFA4FFA4FF24
:103BD000A3FFA3FFA3FFA3FF83FFE3FE02DDC0CB90
:103BE000C0CB20DCC1E441E5A1EDE1F521F620F6F2
:103BF000E0F5A0ED40EDC0E421DCC0D3E0D360DC13
:103C0000E0E440EDE0D3A0DBE0F420F5A0F520F601
:103C1000A0FEA0FE80F680F660F680F6A0F6C0F664
:103C2000E0FEE0FEC1F640FFA0FFA0FFA0FFA1FF65
:103C3000A2FFA3FFA3FFA4FFA5FFA5FFA6FFA7FF69
:103C4000C7FFC7FFC8FFC8FFC9FFC9FFC9FFC9FF3A
:103C5000AAFFAAFFCAFFAAFFAAFFC9FFA9FFA9FFDF
:103C6000A9FFA8FFA8FFA7FFA7FF86FF85FF64FFA6
:103C700064FF43FF22FF02FF01FF80F657F7FFFFBB
:103C8000FFFFFFFFFFFFFFFFFFFFFFFFFFFFFFFF44
:103C9000FFFFFFFFFFFFFFFFFFFFFFFFFFFFFFFF34
:103CA000FFFFFFFFFFFFFFFFFFFFFFFFFFFFFFFF24
:103CB000FFFFFFFFFFFFDFFF5DE7FFFF93EEE5E59F
:103CC00040F6E0FE01FF02FF02FF01FF22FF62FF5C
:103CD00082FFA1FF81FF61FF41F620D420D441ED96
:103CE00001F681F602FF42FF63FF63FF64FF65FF99
:103CF00045FF04FFA2FE20F680EDE0EC20DC40CB87
:103D000040CB20DC00C3E0EBA0F4E0F440F520ED74
:103D1000C0E440DCE0D3C0D3C0D3C0D3C0D3E0D331
:103D200040DCC0DC41E5C2EDE2F6A1FFC0FFA2FF2E
:103D3000A2FFA3FFA4FFA5FFA6FFA6FFA7FFA7FF63
:103D4000C8FFC9FFC9FFCAFFCAFFCAFFCBFFCBFF2D
:103D5000CBFFCBFFCBFFCBFFCBFFCBFFCBFFABFF33
:103D6000ABFFCAFFAAFFA9FFA9FFA8FF87FF86FF35
:103D700065FF64FF43FF22FF01FFC0F696FFFFFFD0
:103D8000FFFFFFFFFFFFFFFFFFFFFFFFFFFFFFFF43
:103D9000FFFFFFFFFFFFFFFFFFFFFFFFFFFFFFFF33
:103DA000FFFFFFFFFFFFFFFFFFFFFFFFFFFFFFFF23
:103DB000FFFFFFFFFFFFFFFF9AD679CEFFFFBEF7A1
:103DC000B3EE26EE80F6E0F600FF21FF01FF20FFB4
:103DD00020FF40FF20FFE0F520D460E580FEE1FEFB
:103DE00043FF85FFA7FFA9FF8AFF8AFFADFFAFFF53
:103DF000B0FFB0FF8FFF2DF788F6A2EDC0EC20DCFE
:103E000020CBA0BA01CB20EC40EC80EC00E420CB2E
:103E1000C0C2C0C240CBC0D300D440DC60DC60DC98
:103E200020DCE0D3C0D3C0D321D442E5E3F6C2FF07
:103E3000C3FFA3FFA4FFA5FFA6FFA7FFA8FFC8FF1E
:103E4000C9FFAAFFCAFFCBFFCBFFCBFFCCFFCCFF44
:103E5000CCFFCCFFCCFFCCFFACFFCCFFCCFFCCFF2A
:103E6000CCFFACFFABFFABFFABFFAAFFA9FF88FF06
:103E700087FF86FF65FF63FF42FF02F7B8FFFFFF82
:103E8000FFFFFFFFFFFFFFFFFFFFFFFFFFFFFFFF42
:103E9000FFFFFFFFFFFFFFFFFFFFFFFFFFFFFFFF32
:103EA000FFFFFFFFFFFFFFFFFFFFFFFFFFFFFFFF22
:103EB000FFFFFFFFFFFFFFFFFFFF34A579CEFFFFEE
:103EC000FFFFDEFF15F788EEA0F6E0F600FF20FF0B
:103ED00020FF40FF00FFC0DCC0EDE0FE02FF86FFD8
:103EE000AAFFABFFCBFFEBFFEAFFE9FFE9FFE8FF2B
:103EF000E8FFE8FFE8FFE8FF8AFFEBFEE6ED80E47D
:103F0000C0DB60BA80C200EC00EC80DBA0C2E0C283
:103F1000A0D360E4C0E440ED00EE80F6E0F600F7E8
:103F200020FF00F7C0F640F680E5C0DC61D443E531
:103F3000C4F684FFE5FFC6FFA6FFA7FFA8FFA9FF01
:103F4000A9FFCAFFCBFFCBFFACFFACFFACFFCDFF9F
:103F5000CDFFCDFFCDFFCDFFCDFFCDFFCDFFCDFF01
:103F6000CDFFCDFFCDFFCDFFACFFABFFAAFFA9FF7B
:103F7000A9FF87FF86FF65FF43FF26F7DCFFFFFFF2
:103F8000FFFFFFFFFFFFFFFFFFFFFFFFFFFFFFFF41
:103F9000FFFFFFFFFFFFFFFFFFFFFFFFFFFFFFFF31
:103FA000FFFFFFFFFFFFFFFFFFFFFFFFFFFFFFFF21
:103FB000FFFFFFFFFFFFFFFFFFFFBFF792949AD6BF
:103FC000FFFFDFFFFFFFFFFF79F7EEF604F700FFCB
:103FD00000FF40FFA0F641E5E0FE02FFC9FFCCFF75
:103FE000CBFFC8FF46FFA4CD0394E3628352634A2C
:103FF000844AC35A6373219C20CD21FE66FE85ED61
:10400000E0DB42C3C9BB00CB80E3E0CA20CB20E4A5
:1040100080ECC0EC60EDA0FE00FF40FF62FF84FF7B
:1040200085FFA5FFA6FFC8FFE8FFC6FF23FF21EE1F
:10403000A3E504EEA4EE46FFC7FFC8FFA9FFADFF4E
:10404000CDFFABFFABFFABFFACFFACFFCDFFCDFFB8
:10405000CDFFCDFFCEFFCEFFCEFFCEFFCEFFCEFFFA
:10406000CEFFCEFFCEFFCDFFCDFFCDFFADFFADFF2D
:10407000AAFFA8FF87FF86FF63FF8FFFFFFFFFFFF9
:10408000FFFFFFFFFFFFFFFFFFFFFFFFFFFFFFFF40
:10409000FFFFFFFFFFFFFFFFFFFFFFFFFFFFFFFF30
:1040A000FFFFFFFFFFFFFFFFFFFFFFFFFFFFFFFF20
:1040B000FFFFFFFFFFFFFFFFFFFFFFFFBEF73184A2
:1040C00038C6FFFFDEFFFFFFFFFFFFFFDEFFB7FF8A
:1040D0006EFF46FFC2F640EEE0FE05FF6AFF69FF95
:1040E000E4FEA2BC6141000000000100C5004709D8
:1040F000A911EA11CA1168112611624120B3E2EC3C
:1041000000DCA5C3FFFF34E626D400C3E0E340ECA7
:1041100080ECE0EC80F560F6E0FE40FFA3FFE6FFF8
:10412000E8FFE8FFEAFFEFFFD0FFD1FFD1FFEDFF8F
:10413000A6FF43FFC4F665EE86EE27F7A8FFEAFF69
:10414000CFFFD2FFD1FFAEFFADFFACFFCCFFCDFF65
:10415000CDFFCEFFCEFFCEFFCEFFCEFFCEFFCEFFF8
:10416000CEFFCEFFCEFFCFFFD0FFD2FFD3FFD3FFD6
:10417000AEFFA9FFA9FF86FF69F7FCFFFFFFFFFF66
:10418000FFFFFFFFFFFFFFFFFFFFFFFFFFFFFFFF3F
:10419000FFFFFFFFFFFFFFFFFFFFFFFFFFFFFFFF2F
:1041A000FFFFFFFFFFFFFFFFFFFFFFFFFFFFFFFF1F
:1041B000FFFFFFFFFFFFFFFFFFFFFFFFFFFFBEF758
:1041C000108434A5FFFFFFFFDFFFFFFFFFFFFFFFAE
:1041D000FFFFFFFFDBFF4CF7A0F6E3F6E7F6A4FED8
:1041E000C1C30008000000000000210005096709A4
:1041F000C9194B22AC2AAC2A4B228801C410C1A297
:10420000C0E390DDFFFFFFFF3AF700C300EC20ECB6
:1042100060ECC0F440FDA0FDA1ED61CD22BD03B571
:1042200023B584BD23CEC4E665FFE8FFEDFFD1FFD3
:10423000D2FFCBFFC4FF45F746FFC6EEA6EE08F758
:1042400089FFCCFFD1FFD3FFD3FFD2FFD1FFD0FF37
:10425000CFFFCFFFCFFFAEFFCFFFCFFFCFFFCFFF0F
:10426000D0FFD1FFD2FFD3FFD4FFD4FFD4FFD2FFC2
:10427000ACFFAAFFA7FF8AFFDAFFFFFFFFFFFFFFE8
:10428000FFFFFFFFFFFFFFFFFFFFFFFFFFFFFFFF3E
:10429000FFFFFFFFFFFFFFFFFFFFFFFFFFFFFFFF2E
:1042A000FFFFFFFFFFFFFFFFFFFFFFFFFFFFFFFF1E
:1042B000FFFFFFFFFFFFFFFFFFFFFFFFFFFFFFFF0E
:1042C000FFFF9294CF7B5DEFFFFFFFFFFFFFFFFF3C
:1042D000FFFFFFFFFFFFFFFF72FFE5F6C1F660F68D
:1042E000E0DB20590000000000000000820005090A
:1042F0004709C9114B1A8C226B224A22A90923199A
:10430000EBC4DEFFDFFFFFFFDEFF06CC60DB40F427
:1043100040EC60EC60CB61596018000000000000C8
:1043200000004300C4084421E341237324C568FF0F
:10433000EFFFD3FFCAFFC4EE45F7E6FFA7FF48F73C
:1043400008F728F78AFFCCFFD0FFD2FFD4FFD4FFB5
:10435000D4FFD3FFD3FFD3FFD3FFD3FFD3FFD3FFCC
:10436000D4FFD4FFD4FFD4FFD3FFD2FFCFFFACFFE5
:10437000AAFFA9FFAFFFDCFFFFFFFFFFFFFFFFFF6B
:10438000FFFFFFFFFFFFFFFFFFFFFFFFFFFFFFFF3D
:10439000FFFFFFFFFFFFFFFFFFFFFFFFFFFFFFFF2D
:1043A000FFFFFFFFFFFFFFFFFFFFFFFFFFFFFFFF1D
:1043B000FFFFFFFFFFFFFFFFFFFFFFFFFFFFFFFF0D
:1043C000FFFFFFFF18C64D6B75ADFFFFFFFFDFFF5F
:1043D000FFFFFFFFFFFFFFFFFFFFFEFF95FF2CF733
:1043E000A6FE03FE215A0000200000002000C400A9
:1043F00005016709E9196B228C226B220A1A260132
:10440000CC3ADFFFDFFFDFFFFFFF1AF784CB40DB93
:1044100040F420ECC0A900080000000000000000EB
:104420000000E508A811C911EA11A9114711645A41
:1044300027E6CFFFECFFC5EEC7F6C6FFA5FFC6FF18
:10444000C6FFA7FFA8FFA9FFC9FFCBFFCCFFCEFF88
:10445000D0FFD2FFD2FFD3FFD3FFD3FFD3FFD3FFD1
:10446000D2FFD1FFD0FFCEFFCCFFABFFAAFFACFF46
:10447000D0FFD8FFFFFFFFFFFFFFFFFFFFFFFFFFA2
:10448000FFFFFFFFFFFFFFFFFFFFFFFFFFFFFFFF3C
:10449000FFFFFFFFFFFFFFFFFFFFFFFFFFFFFFFF2C
:1044A000FFFFFFFFFFFFFFFFFFFFFFFFFFFFFFFF1C
:1044B000FFFFFFFFFFFFFFFFFFFFFFFFFFFFFFFF0C
:1044C000FFFFDFFFFFFFBEF792948E7338C6FFFF3A
:1044D000FFFFDFFFFFFFFFFFFFFFFFFFFFFFFFFF0C
:1044E000FFFFFCFF99FF084200000000000062008F
:1044F000C408250988110A1A6B228B224B1AE91964
:10450000A400517CFFFFDFFFFFFFFFFF9DF7EDD40D
:1045100081D3C0E3A0EB60AA2008000000000000E7
:10452000000042004609A8112A1A8C22AC22AA09CE
:10453000E662EBFFA7FF69E6BCFFFBFFD7FFD3FFF7
:10454000D0FFCDFFCBFFA9FFA9FFA8FFA7FFA7FFC3
:10455000A7FFA8FFA9FFA9FFAAFFCAFFCAFFAAFFDA
:10456000CAFFAAFFABFFADFFCFFFD3FFD7FFFCFF12
:10457000FFFFFFFFFFFFFFFFFFFFFFFFFFFFFFFF4B
:10458000FFFFFFFFFFFFFFFFFFFFFFFFFFFFFFFF3B
:10459000FFFFFFFFFFFFFFFFFFFFFFFFFFFFFFFF2B
:1045A000FFFFFFFFFFFFFFFFFFFFFFFFFFFFFFFF1B
:1045B000FFFFFFFFFFFFFFFFFFFFFFFFFFFFFFFF0B
:1045C000FFFFFFFFDFFFFFFFFFFFDBDEEF7BAE73D1
:1045D00039CEFFFFFFFFFFFFDFFFFFFFFFFFFFFF02
:1045E000FFFFFFFFFFFF9EF76629000000000000AD
:1045F0008300E4004609A8112A1A6B224B220A1AEA
:104600008709E40079C6FFFFDFFFFFFFFFFFFFFF21
:104610005BF7D1E5C8DCE4F4A28A000000000000EA
:1046200000000000C4004609A8112A1A6B228C223F
:10463000E911E9BD0BF739EFFFFFFFFFFFFFFFFFB8
:10464000FFFFFFFFFEFFFDFFFBFFD9FFD8FFD7FFF6
:10465000D5FFD4FFD4FFD3FFD4FFD4FFD5FFD6FFBF
:10466000D8FFFAFFFCFFFDFFFFFFFFFFFFFFFFFF8B
:10467000FFFFFFFFFFFFFFFFFFFFFFFFFFFFFFFF4A
:10468000FFFFFFFFFFFFFFFFFFFFFFFFFFFFFFFF3A
:10469000FFFFFFFFFFFFFFFFFFFFFFFFFFFFFFFF2A
:1046A000FFFFFFFFFFFFFFFFFFFFFFFFFFFFFFFF1A
:1046B000FFFFFFFFFFFFFFFFFFFFFFFFFFFFFFFF0A
:1046C000FFFFFFFFFFFFFFFFDFFFFFFFFFFF79CED1
:1046D000EF7B8E73B6B5DFFFFFFFFFFFDFFFDFFF6E
:1046E000FFFFFFFFDFFFFFFFFBDEA3100000000066
:1046F0000000A30005014609C8110A1A2A1AEA197E
:10470000A811C4002932DFFFFFFFFFFFFFFFFFFFFB
:10471000FFFFFFFFFFFF9CF75AF708420000000071
:1047200000000000420005096709E9114B1A6B22DD
:104730000A12AB3A9DF7FFFFFFFFFFFFFFFFFFFFEE
:10474000FFFFFFFFFFFFFFFFFFFFFFFFFFFFFFFF79
:10475000FFFFFFFFFFFFFFFFFFFFFFFFFFFFFFFF69
:10476000FFFFFFFFFFFFFFFFFFFFFFFFFFFFFFFF59
:10477000FFFFFFFFFFFFFFFFFFFFFFFFFFFFFFFF49
:10478000FFFFFFFFFFFFFFFFFFFFFFFFFFFFFFFF39
:10479000FFFFFFFFFFFFFFFFFFFFFFFFFFFFFFFF29
:1047A000FFFFFFFFFFFFFFFFFFFFFFFFFFFFFFFF19
:1047B000FFFFFFFFFFFFFFFFFFFFFFFFFFFFFFFF09
:1047C000FFFFFFFFFFFFFFFFFFFFFFFFDFFFFFFF19
:1047D000FFFFBAD630842D639294DBDEFFFFFFFF2C
:1047E000FFFFDFFFDFFFDFFFFFFFF7BD000000007F
:1047F00000002100C40005096709A811A81188114B
:10480000670926094200D394FFFFDFFFFFFFFFFF88
:10481000FFFFDFFFFFFFFFFFFFFFDBDE41080000C0
:10482000000000000000A30026098711E9192B1AD7
:104830006B2288099384FFFFDFFFFFFFFFFFFFFF6D
:10484000FFFFFFFFFFFFFFFFFFFFFFFFFFFFFFFF78
:10485000FFFFFFFFFFFFFFFFFFFFFFFFFFFFFFFF68
:10486000FFFFFFFFFFFFFFFFFFFFFFFFFFFFFFFF58
:10487000FFFFFFFFFFFFFFFFFFFFFFFFFFFFFFFF48
:10488000FFFFFFFFFFFFFFFFFFFFFFFFFFFFFFFF38
:10489000FFFFFFFFFFFFFFFFFFFFFFFFFFFFFFFF28
:1048A000FFFFFFFFFFFFFFFFFFFFFFFFFFFFFFFF18
:1048B000FFFFFFFFFFFFFFFFFFFFFFFFFFFFFFFF08
:1048C000FFFFFFFFFFFFFFFFFFFFFFFFFFFFFFFFF8
:1048D000DFFFFFFFFFFF7DEF34A56D6B8E7335A506
:1048E0003CE7FFFFFFFFFFFFDFFFFFFF308400001B
:1048F00020000000420083006200420042004200AB
:10490000220041002100E4105DE7FFFFFFFFFFFFF1
:10491000FFFFFFFFFFFFFFFFDFFFFFFF929400009D
:104920000000000000000100C40026098711C91919
:104930000A1AE9198811DBD6FFFFFFFFFFFFFFFF0F
:10494000FFFFFFFFFFFFFFFFFFFFFFFFFFFFFFFF77
:10495000FFFFFFFFFFFFFFFFFFFFFFFFFFFFFFFF67
:10496000FFFFFFFFFFFFFFFFFFFFFFFFFFFFFFFF57
:10497000FFFFFFFFFFFFFFFFFFFFFFFFFFFFFFFF47
:10498000FFFFFFFFFFFFFFFFFFFFFFFFFFFFFFFF37
:10499000FFFFFFFFFFFFFFFFFFFFFFFFFFFFFFFF27
:1049A000FFFFFFFFFFFFFFFFFFFFFFFFFFFFFFFF17
:1049B000FFFFFFFFFFFFFFFFFFFFFFFFFFFFFFFF07
:1049C000FFFFFFFFFFFFFFFFFFFFFFFFFFFFFFFFF7
:1049D000FFFFFFFFDFFFFFFFFFFFFFFFBAD6B2942D
:1049E0004D6B8E73F39CBAD6FFFFFFFFFFFFE839D4
:1049F00000000000000000000000000000000000B7
:104A000000000000000000008E73FFFFDFFFFFFFCB
:104A1000FFFFFFFFFFFFDFFFDFFFBEFFDFFFE83924
:104A200000000000000000004100E5084609871171
:104A3000A811C81126014E53FFFFFFFFFFFFFFFF24
:104A4000FFFFFFFFFFFFFFFFFFFFFFFFFFFFFFFF76
:104A5000FFFFFFFFFFFFFFFFFFFFFFFFFFFFFFFF66
:104A6000FFFFFFFFFFFFFFFFFFFFFFFFFFFFFFFF56
:104A7000FFFFFFFFFFFFFFFFFFFFFFFFFFFFFFFF46
:104A8000FFFFFFFFFFFFFFFFFFFFFFFFFFFFFFFF36
:104A9000FFFFFFFFFFFFFFFFFFFFFFFFFFFFFFFF26
:104AA000FFFFFFFFFFFFFFFFFFFFFFFFFFFFFFFF16
:104AB000FFFFFFFFFFFFFFFFFFFFFFFFFFFFFFFF06
:104AC000FFFFFFFFFFFFFFFFFFFFFFFFFFFFFFFFF6
:104AD000FFFFFFFFFFFFFFFFDFFFFFFFFFFFFFFF06
:104AE000FFFFBAD6F39C8E734D6B718C79CE1CE7A9
:104AF0000421000000000000000000000000000091
:104B0000000000000000000041003CE7FFFFFFFF45
:104B1000FFFFFFFFFFFFFFFFFFFFFFFFFFFFFBDECA
:104B2000410800000000000000006200A300C4086B
:104B3000050946094609C40039C6FFFFDFFFFFFF2C
:104B4000FFFFFFFFFFFFFFFFFFFFFFFFFFFFFFFF75
:104B5000FFFFFFFFFFFFFFFFFFFFFFFFFFFFFFFF65
:104B6000FFFFFFFFFFFFFFFFFFFFFFFFFFFFFFFF55
:104B7000FFFFFFFFFFFFFFFFFFFFFFFFFFFFFFFF45
:104B8000FFFFFFFFFFFFFFFFFFFFFFFFFFFFFFFF35
:104B9000FFFFFFFFFFFFFFFFFFFFFFFFFFFFFFFF25
:104BA000FFFFFFFFFFFFFFFFFFFFFFFFFFFFFFFF15
:104BB000FFFFFFFFFFFFFFFFFFFFFFFFFFFFFFFF05
:104BC000FFFFFFFFFFFFFFFFFFFFFFFFFFFFFFFFF5
:104BD000FFFFFFFFFFFFFFFFFFFFFFFFFFFFDFFF05
:104BE000FFFFFFFFFFFFFFFF3CE755AD4D6B4D6B38
:104BF000A7310000000000000000000000000000DD
:104C0000000000000010002000288669498AC7893A
:104C1000A689A691E791699A2CA351B4B6CD9EF7C7
:104C2000349D0000000000000000000000000000B3
:104C300001002100620821006A42FFFFFFFFFFFF21
:104C4000FFFFFFFFFFFFFFFFFFFFFFFFFFFFFFFF74
:104C5000FFFFFFFFFFFFFFFFFFFFFFFFFFFFFFFF64
:104C6000FFFFFFFFFFFFFFFFFFFFFFFFFFFFFFFF54
:104C7000FFFFFFFFFFFFFFFFFFFFFFFFFFFFFFFF44
:104C8000FFFFFFFFFFFFFFFFFFFFFFFFFFFFFFFF34
:104C9000FFFFFFFFFFFFFFFFFFFFFFFFFFFFFFFF24
:104CA000FFFFFFFFFFFFFFFFFFFFFFFFFFFFFFFF14
:104CB000FFFFFFFFFFFFFFFFFFFFFFFFFFFFFFFF04
:104CC000FFFFFFFFFFFFFFFFFFFFFFFFFFFFFFFFF4
:104CD000FFFFFFFFFFFFFFFFFFFFFFFFFFFFFFFFE4
:104CE000FFFFFFFFDFFFDFFFFFFFFFFFFFFF7DEFA6
:104CF00096B5E73900000000000000000008002819
:104D0000004000580068007800880088009000A0EB
:104D100000A800B800B800B800C000C020B0E3A0F0
:104D20006DC34541000000000000000000000000CD
:104D300000000000000000000000D7BDFFFFDFFF03
:104D4000FFFFFFFFFFFFFFFFFFFFFFFFFFFFFFFF73
:104D5000FFFFFFFFFFFFFFFFFFFFFFFFFFFFFFFF63
:104D6000FFFFFFFFFFFFFFFFFFFFFFFFFFFFFFFF53
:104D7000FFFFFFFFFFFFFFFFFFFFFFFFFFFFFFFF43
:104D8000FFFFFFFFFFFFFFFFFFFFFFFFFFFFFFFF33
:104D9000FFFFFFFFFFFFFFFFFFFFFFFFFFFFFFFF23
:104DA000FFFFFFFFFFFFFFFFFFFFFFFFFFFFFFFF13
:104DB000FFFFFFFFFFFFFFFFFFFFFFFFFFFFFFFF03
:104DC000FFFFFFFFFFFFFFFFFFFFFFFFFFFFFFFFF3
:104DD000FFFFFFFFFFFFFFFFFFFFFFFFFFFFFFFFE3
:104DE000FFFFFFFFFFFFFFFFFFFFBEF7DBCE39B680
:104DF000F8AD937C4A324A32E8298721054982601E
:104E0000007000700078007800800090009800A08A
:104E100000B001B821C801C882E0E2F0C1F080E82A
:104E200000D021A8005000500060006000580048E9
:104E300000380028001820080000E731FFFFDFFFDE
:104E4000DFFFFFFFFFFFFFFFFFFFFFFFFFFFFFFF92
:104E5000FFFFFFFFFFFFFFFFFFFFFFFFFFFFFFFF62
:104E6000FFFFFFFFFFFFFFFFFFFFFFFFFFFFFFFF52
:104E7000FFFFFFFFFFFFFFFFFFFFFFFFFFFFFFFF42
:104E8000FFFFFFFFFFFFFFFFFFFFFFFFFFFFFFFF32
:104E9000FFFFFFFFFFFFFFFFFFFFFFFFFFFFFFFF22
:104EA000FFFFFFFFFFFFFFFFFFFFFFFFFFFFFFFF12
:104EB000FFFFFFFFFFFFFFFFFFFFFFFFFFFFFFFF02
:104EC000FFFFFFFFFFFFFFFFFFFFFFFFFFFFFFFFF2
:104ED000FFFFFFFFFFFFFFFFFFFFFFFFFFFFFFFFE2
:104EE000FFFFFFFFFFFFDFF7D7A5726C1164526C65
:104EF000726CD47C568D568D568D358DF47C526CEB
:104F00006E63295AE3580068007800800088009892
:104F100000A000B000B801C061E0A1E8A1E0A1E8F4
:104F200081E001C801B0008000900098009800A0C6
:104F300000A00098009021802068003876C5FFFF0F
:104F4000FFFFFFFFDFFFFFFFFFFFFFFFFFFFFFFF91
:104F5000FFFFFFFFFFFFFFFFFFFFFFFFFFFFFFFF61
:104F6000FFFFFFFFFFFFFFFFFFFFFFFFFFFFFFFF51
:104F7000FFFFFFFFFFFFFFFFFFFFFFFFFFFFFFFF41
:104F8000FFFFFFFFFFFFFFFFFFFFFFFFFFFFFFFF31
:104F9000FFFFFFFFFFFFFFFFFFFFFFFFFFFFFFFF21
:104FA000FFFFFFFFFFFFFFFFFFFFFFFFFFFFFFFF11
:104FB000FFFFFFFFFFFFFFFFFFFFFFFFFFFFFFFF01
:104FC000FFFFFFFFFFFFFFFFFFFFFFFFFFFFFFFFF1
:104FD000FFFFFFFFFFFFFFFFFFFFFFFFFFFFFFFFE1
:104FE000FFFFFFFF1CDF516C1164D47C358D55959C
:104FF0007695769D969D97A5B7A5B7A5D7A5D7A574
:10500000D79D9795D47C4E634559007000880090D9
:10501000009800A800B801C081E0A1E8A1E8A1E8DB
:1050200081E001C001B800980070008800880090FD
:1050300000A000B001B801C841D081D061A849AA40
:1050400055CDDFF7FFFFFFFFFFFFFFFFFFFFFFFF74
:10505000FFFFFFFFFFFFFFFFFFFFFFFFFFFFFFFF60
:10506000FFFFFFFFFFFFFFFFFFFFFFFFFFFFFFFF50
:10507000FFFFFFFFFFFFFFFFFFFFFFFFFFFFFFFF40
:10508000FFFFFFFFFFFFFFFFFFFFFFFFFFFFFFFF30
:10509000FFFFFFFFFFFFFFFFFFFFFFFFFFFFFFFF20
:1050A000FFFFFFFFFFFFFFFFFFFFFFFFFFFFFFFF10
:1050B000FFFFFFFFFFFFFFFFFFFFFFFFFFFFFFFF00
:1050C000FFFFFFFFFFFFFFFFFFFFFFFFFFFFFFFFF0
:1050D000FFFFFFFFFFFFFFFFFFFFFFFFFFFFFFFFE0
:1050E000FFFF1CD7F05B726CF4841485358D5595E9
:1050F00076955695158515857695D8ADF8ADF8ADAC
:1051000018AEF8ADF8ADF8A53585EC626170008891
:10511000009800A000B020C081E0A1E8A1E8A1E8CB
:10512000A1E021C800B800B80090006800800088A5
:10513000009000A000A800B801C041D8A1F040D85C
:1051400000B886A914CDFFFFFFFFDFFFFFFFFFFFC1
:10515000FFFFFFFFFFFFFFFFFFFFFFFFFFFFFFFF5F
:10516000FFFFFFFFFFFFFFFFFFFFFFFFFFFFFFFF4F
:10517000FFFFFFFFFFFFFFFFFFFFFFFFFFFFFFFF3F
:10518000FFFFFFFFFFFFFFFFFFFFFFFFFFFFFFFF2F
:10519000FFFFFFFFFFFFFFFFFFFFFFFFFFFFFFFF1F
:1051A000FFFFFFFFFFFFFFFFFFFFFFFFFFFFFFFF0F
:1051B000FFFFFFFFFFFFFFFFFFFFFFFFFFFFFFFFFF
:1051C000FFFFFFFFFFFFFFFFFFFFFFFFFFFFFFFFEF
:1051D000FFFFFFFFFFFFFFFFFFFFFFFFFFFFFFFFDF
:1051E000DFF7727431649374B374B37C9374727424
:1051F000516CF0533164D47C3595969DB7A5F8ADCC
:1052000019AE39B639B619B619B6F89D106CA37037
:10521000009000A000A820C081E0A1E0A1E8A1E8E2
:1052200081E021C800B800B000B0008000680080B4
:105230000088009000A000A800B800C061D8C1F0AC
:10524000E2F860E800C007B279E6FFFFDFFFFFFF8A
:10525000FFFFFFFFFFFFFFFFFFFFFFFFFFFFFFFF5E
:10526000FFFFFFFFFFFFFFFFFFFFFFFFFFFFFFFF4E
:10527000FFFFFFFFFFFFFFFFFFFFFFFFFFFFFFFF3E
:10528000FFFFFFFFFFFFFFFFFFFFFFFFFFFFFFFF2E
:10529000FFFFFFFFFFFFFFFFFFFFFFFFFFFFFFFF1E
:1052A000FFFFFFFFFFFFFFFFFFFFFFFFFFFFFFFF0E
:1052B000FFFFFFFFFFFFFFFFFFFFFFFFFFFFFFFFFE
:1052C000FFFFFFFFFFFFFFFFFFFFFFFFFFFFFFFFEE
:1052D000FFFFFFFFFFFFFFFFFFFFFFFFFFFFFFFFDE
:1052E00079BE8F531164F05BD053D053D053F05B31
:1052F000115C526492749374B37C14857695B7A54F
:10530000F8AD59B67ABE7ABE59BE39BE59AEF07301
:10531000218000A000A820C081D881E081E081E048
:1053200081E020C000B800B000A800A800780068A4
:105330000078008800A020B020B821C061D881E0AA
:10534000A1E0C1E8E2F840E881C8D2DCFFFFFFFF3E
:10535000FFFFFFFFFFFFFFFFFFFFFFFFFFFFFFFF5D
:10536000FFFFFFFFFFFFFFFFFFFFFFFFFFFFFFFF4D
:10537000FFFFFFFFFFFFFFFFFFFFFFFFFFFFFFFF3D
:10538000FFFFFFFFFFFFFFFFFFFFFFFFFFFFFFFF2D
:10539000FFFFFFFFFFFFFFFFFFFFFFFFFFFFFFFF1D
:1053A000FFFFFFFFFFFFFFFFFFFFFFFFFFFFFFFF0D
:1053B000FFFFFFFFFFFFFFFFFFFFFFFFFFFFFFFFFD
:1053C000FFFFFFFFFFFFFFFFFFFFFFFFFFFFFFFFED
:1053D000FFFFFFFFFFFFFFFFFFFFFFFFDFFFFFFFFD
:1053E000D7AD2D438F4BCF533264B37C1485558D8D
:1053F0007695769D969D979D979D979DB7A5F8ADBF
:1054000019B659BE9AC69AC69AC69AC67AC639A617
:10541000087A009800A820C060D881D881E081E097
:1054200081D800B800B000A800A000A000980070CB
:10543000006000680078009020A840C040C861D09B
:1054400080D881E0A1E0C1E8A1F040E02FE4DFFFD7
:10545000DFFFDFFFFFFFFFFFFFFFFFFFFFFFFFFF9C
:10546000FFFFFFFFFFFFFFFFFFFFFFFFFFFFFFFF4C
:10547000FFFFFFFFFFFFFFFFFFFFFFFFFFFFFFFF3C
:10548000FFFFFFFFFFFFFFFFFFFFFFFFFFFFFFFF2C
:10549000FFFFFFFFFFFFFFFFFFFFFFFFFFFFFFFF1C
:1054A000FFFFFFFFFFFFFFFFFFFFFFFFFFFFFFFF0C
:1054B000FFFFFFFFFFFFFFFFFFFFFFFFFFFFFFFFFC
:1054C000FFFFFFFFFFFFFFFFFFFFFFFFFFFFFFFFEC
:1054D000FFFFFFFFFFFFFFFFFFFFFFFFFFFFFFFFDC
:1054E000D4844E43926C158D5695969DB7A5D8A53C
:1054F000F8ADF8AD18AE18AE19B639B639B659B61A
:105500007ABE9AC6BBCEDBCEFBD61CD7FCD63CD728
:10551000D08B009000A800B040D061D881D881D84D
:1055200061D000B800B000A800A0009800980088E2
:105530000080008800780070008020A020B840C063
:1055400060D081D881D881E0A1E863F1E2D81BFF67
:10555000FFFFFFFFFFFFFFFFFFFFFFFFFFFFFFFF5B
:10556000FFFFFFFFFFFFFFFFFFFFFFFFFFFFFFFF4B
:10557000FFFFFFFFFFFFFFFFFFFFFFFFFFFFFFFF3B
:10558000FFFFFFFFFFFFFFFFFFFFFFFFFFFFFFFF2B
:10559000FFFFFFFFFFFFFFFFFFFFFFFFFFFFFFFF1B
:1055A000FFFFFFFFFFFFFFFFFFFFFFFFFFFFFFFF0B
:1055B000FFFFFFFFFFFFFFFFFFFFFFFFFFFFFFFFFB
:1055C000FFFFFFFFFFFFFFFFFFFFFFFFFFFFFFFFEB
:1055D000FFFFFFFFFFFFFFFFFFFFFFFFBEF793741B
:1055E000F05B15857695979DD8AD19B659B659BE1D
:1055F0007ABE9AC6BAC6BBCEDBCEFBD6FCD61CD7CB
:105600001CDF3CDF3DE75DE75DE75DE73DE79EEFE3
:10561000F4AC009000A800A820B861D061D060D0A0
:1056200060D040C840C000B000A00098009800982A
:1056300000900098009800980090008800A020B08A
:1056400040C040C860D081D8A1E063F123C176ADED
:1056500039B69AC67DE7FFFFFFFFFFFFFFFFFFFFA1
:10566000FFFFFFFFFFFFFFFFFFFFFFFFFFFFFFFF4A
:10567000FFFFFFFFFFFFFFFFFFFFFFFFFFFFFFFF3A
:10568000FFFFFFFFFFFFFFFFFFFFFFFFFFFFFFFF2A
:10569000FFFFFFFFFFFFFFFFFFFFFFFFFFFFFFFF1A
:1056A000FFFFFFFFFFFFFFFFFFFFFFFFFFFFFFFF0A
:1056B000FFFFFFFFFFFFFFFFFFFFFFFFFFFFFFFFFA
:1056C000FFFFFFFFFFFFFFFFFFFFFFFFFFFFFFFFEA
:1056D000FFFFFFFFFFFFDFFFDFFFDFFFD37C115C7A
:1056E000358D7695D8A539B659BE7AC69AC6BBCE41
:1056F000FCD63CDF3DE75DE75DE77DE77EEF7EEFD3
:105700007EEF9EEF9EEF9EEF9EEF9EF79EEFFFF7E0
:1057100092C4009000A800A800B040C860D040D05B
:1057200040C840C840B800A000A000980098009071
:10573000009000900090009800A000A000A000A899
:1057400020B840C040C840D0A1D822E903A9F063E6
:10575000F15BD05BF05B937C9AC6FFFFFFFFFFFF1E
:10576000FFFFFFFFFFFFFFFFFFFFFFFFFFFFFFFF49
:10577000FFFFFFFFFFFFFFFFFFFFFFFFFFFFFFFF39
:10578000FFFFFFFFFFFFFFFFFFFFFFFFFFFFFFFF29
:10579000FFFFFFFFFFFFFFFFFFFFFFFFFFFFFFFF19
:1057A000FFFFFFFFFFFFFFFFFFFFFFFFFFFFFFFF09
:1057B000FFFFFFFFFFFFFFFFFFFFFFFFFFFFFFFFF9
:1057C000FFFFFFFFFFFFFFFFFFFFFFFFFFFFFFFFE9
:1057D000FFFFDFFFFFFFFFFFFFFF7AC66F4B727413
:1057E000F484969D19AE7ABE9AC6BACEFCD63DE731
:1057F0005DE77DE77EEF9EEFBEF7BEF7BEF7BEF733
:10580000BFF7DFF7DFFFDFFFDFFFDFFFBEF7FFFFE1
:1058100055C5A28800A000A800A820C040C840C864
:1058200040C840C000A800A800A800A800A800A880
:1058300000A000A000A000A000A000A000A000A068
:1058400020B840B840C040C8C1D0C1D8A699F47CA7
:10585000B37C9374726CF05B6E4393749EEFFFFFA6
:10586000FFFFFFFFFFFFFFFFFFFFFFFFFFFFFFFF48
:10587000FFFFFFFFFFFFFFFFFFFFFFFFFFFFFFFF38
:10588000FFFFFFFFFFFFFFFFFFFFFFFFFFFFFFFF28
:10589000FFFFFFFFFFFFFFFFFFFFFFFFFFFFFFFF18
:1058A000FFFFFFFFFFFFFFFFFFFFFFFFFFFFFFFF08
:1058B000FFFFFFFFFFFFFFFFFFFFFFFFFFFFFFFFF8
:1058C000FFFFFFFFFFFFFFFFFFFFFFFFFFFFFFFFE8
:1058D000FFFFFFFFDEF7BBCEF8B531640D3B6F4B2A
:1058E000F15BD47CB7A559B69AC6FCD65DE75DE7F7
:1058F0007EEF9EF7BEF7DFFFDFFFDFFFDFFFDFFF9B
:10590000DFFFDFFFFFFFFFFFFFFFDFFFDFFF9EF790
:10591000DBC61495A38000A800A820C060C840C8BA
:1059200040C840C820B820C040C041C040C040C0AE
:1059300040C040C040B820B820B820B000A800A0A7
:1059400000B040C040C020C8C1D060C8AA92568DE7
:10595000D484D47CB37C937492748F4BF05B9EEFB1
:10596000FFFFFFFFFFFFFFFFFFFFFFFFFFFFFFFF47
:10597000FFFFFFFFFFFFFFFFFFFFFFFFFFFFFFFF37
:10598000FFFFFFFFFFFFFFFFFFFFFFFFFFFFFFFF27
:10599000FFFFFFFFFFFFFFFFFFFFFFFFFFFFFFFF17
:1059A000FFFFFFFFFFFFFFFFFFFFFFFFFFFFFFFF07
:1059B000FFFFFFFFFFFFFFFFFFFFFFFFFFFFFFFFF7
:1059C000FFFFFFFFFFFFFFFFFFFFFFFFFFFFFFFFE7
:1059D000DFF7B7A511648F53D05331649374726CA1
:1059E0003164115C9374D8A59AC63DDF5DE79EEFE4
:1059F000BEF7DFFFDFFFDFFFDFFFDFFFDFFFFFFFC0
:105A0000FFFFFFFFFFFFFFFFDFFFDFFFFFFF9EEF57
:105A1000FBD6DCC6AF7B009800A840C060C860D051
:105A200060D060D060D060D060D061D060D061D0F4
:105A300061C840C840C840C840C840C841C020B83C
:105A400020B040C040C040C081C820B8F09BD89D65
:105A5000358DD37CF484726C526CB37CB053926CF1
:105A6000FFFFFFFFFFFFFFFFFFFFFFFFFFFFFFFF46
:105A7000FFFFFFFFFFFFFFFFFFFFFFFFFFFFFFFF36
:105A8000FFFFFFFFFFFFFFFFFFFFFFFFFFFFFFFF26
:105A9000FFFFFFFFFFFFFFFFFFFFFFFFFFFFFFFF16
:105AA000FFFFFFFFFFFFFFFFFFFFFFFFFFFFFFFF06
:105AB000FFFFFFFFFFFFFFFFFFFFFFFFFFFFFFFFF6
:105AC000FFFFFFFFFFFFFFFFFFFFFFFFFFFF9EEF57
:105AD000B3744E434E436F4BD05B526CD47C76957F
