:020000040800F2
:1000000000000120C5020008CB020008CF02000852
:1000100041030008450300088D03000800000000AC
:10002000000000000000000000000000D5030008F0
:10003000D903000800000000DD030008E103000808
:10004000F1030008F1030008F1030008F1030008C0
:10005000F1030008F1030008F1030008F1030008B0
:10006000F1030008F1030008F1030008F1030008A0
:10007000F1030008F1030008F1030008F103000890
:10008000F1030008F1030008F1030008000000007C
:10009000000000000000000000000000F103000864
:1000A000F1030008F1030008F1030008F103000860
:1000B000F1030008F1030008F1030008F103000850
:1000C000F1030008F1030008F1030008F103000840
:1000D000F1030008F1030008F1030008000000002C
:1000E000F1030008F1030008F1030008000000001C
:1000F000000000000000000000000000F103000804
:1001000000000000F1030008F1030008F1030008FB
:1001100000000000000000000000000000000000DF
:10012000F1030008F1030008F1030008F1030008DF
:10013000F1030008000000000000000000000000C3
:10014000000000000000000000000000F1030008B3
:10015000F1030008F1030008F1030008F1030008AF
:10016000F1030008F1030008000000000000000097
:10017000000000000000000000000000000000007F
:1001800000000000F1030008000000000000000073
:10019000F103000800B583B000F046FE384B394A41
:1001A0001360394A1360394900E02146384B9942BF
:1001B0000BD20A684B6801F10C0488689842F4D9A4
:1001C0001168196004330432F8E72E4B1A68314B7A
:1001D0009A4200D0FEE72C4B1A682F4B9A42F9D175
:1001E000274B2E4A13602E4A13602E4B05E0002049
:1001F000106004329342FAD80B462B4A934204D241
:10020000194651F8082B5B68F4E7244B1B6813B9B7
:10021000234B1B6803B1FEE700F06CFF694601A8A1
:1002200000F094FD214C224BE41AA4100025AC42AE
:1002300014DC204C204BE41AA4100025AC4213DC43
:100240000099019800F05EFF05461C4C1C4BE41A17
:10025000A410002C0EDC284600F04AFD144B53F885
:10026000253098470135E2E7134B53F8253098477E
:100270000135E3E7013C124B53F824309847E8E797
:10028000BABADECA00000020189A0020F403000861
:100290000C04000878563412325476981C9A0020C8
:1002A000B89A00200C0400081C0400081C04000874
:1002B0001C0400081C0400081C0400081C0400089E
:1002C0001C04000808B5FFF765FF00BEFEE71EF03E
:1002D000040F0CBFEFF30880EFF309807146414A29
:1002E00010472DE9F04182B004468846124B5E6B00
:1002F0009F6B9D6A1B6B13F0020F03D00E4BDB6AE2
:10030000002B0CDB0D4800F033FDCDF800803B46A0
:1003100032462946204600F093FD00BEFEE74BF62C
:10032000AB6100F007FE0028ECD0034B4FF0004219
:10033000DA6202B0BDE8F08100ED00E0581C000870
:1003400000BEFEE71EF0040F0CBFEFF30880EFF3D2
:1003500009807146244A10472DE9F04182B00446D5
:100360008846084B5E6B9F6B9D6A074800F000FD56
:10037000CDF800803B4632462946204600F060FD1D
:1003800000BEFEE700ED00E0681C00081EF0040F50
:100390000CBFEFF30880EFF309807146134A104752
:1003A0002DE9F04182B004468846084B5E6B9F6B96
:1003B0009D6A074800F0DCFCCDF800803B463246E1
:1003C0002946204600F03CFD00BEFEE700ED00E0BF
:1003D000741C000800BEFEE700BEFEE700BEFEE79C
:1003E00070470000E302000859030008A103000859
:0403F00000BEFEE766
:1003F400C81C0008000000201C9A0020C81C00082B
:1004040000000010000000101C9A0020BC9A00207C
:080414000000001000000010C0
:1004200010B50446074B1868074BA3FB0030800942
:1004300000F090F8002221464FF0FF3000F044F821
:10044000002010BD0C000020D34D621008B50B4BEE
:100450001A6842F400721A601A6842F480621A60E4
:100460001A6842F480721A60032000F00FF80F201F
:10047000FFF7D6FF00F08AFE002008BD003C0240D6
:10048000014B1868704700BFB09A002010B50446B1
:10049000C31E042B0FD80A4AD36823F4E0631B045D
:1004A0001B0C240204F4E064234343F0BF6343F4D1
:1004B0000033D36010BDA421024800F04FFCEAE7EE
:1004C00000ED00E0881A000870B505460C46164697
:1004D0000F2A25D80F2C28D81B4BDB68C3F3022327
:1004E000C3F10702042A28BF0422191D062921D9B5
:1004F000033B4FF0FF3101FA02F224EA02049C4070
:1005000001FA03F326EA03063443002D14DB240129
:10051000E4B205F1604505F5614585F8004370BD1D
:10052000BC210A4800F01AFCD4E7BD21074800F0BE
:1005300015FCD1E70023DCE705F00F052401E4B248
:10054000034B5C55EBE700BF00ED00E0881A0008A4
:1005500014ED00E00138B0F1807F0AD2064B5860FC
:10056000064AF02182F823100020986007221A60C2
:1005700070470120704700BF10E000E000ED00E090
:1005800010B50446042800D038B9042C0BD0094A11
:10059000136823F00403136010BD40F2B311064842
:1005A00000F0DCFBF1E7034A136843F00403136037
:1005B000F2E700BF10E000E0881A000830B583B011
:1005C000044603680F2B29D8236813F0010F3DD090
:1005D0006368012B01D9052B25D1A34B9B6803F040
:1005E0000C03042B29D0A04B9B6803F00C03082BB1
:1005F0001ED022799D4B1A706368002B50D0FFF7F4
:100600003FFF0546984B1B6813F4003F1ED1FFF7D0
:1006100037FF401B6428F5D90320E3E1F521944816
:1006200000F09CFBD0E7FA21914800F097FBD4E75B
:100630008D4B5B6813F4800FDBD08B4B1B6813F47E
:10064000003F03D06368002B00F0C981236813F0DA
:10065000020F5DD0E368012B31D823691F2B34D8FA
:10066000814B9B6813F00C0F3AD07F4B9B6803F0D3
:100670000C03082B2FD0E368002B74D07D4B012294
:100680001A60FFF7FDFE0546774B1B6813F0020F5B
:100690005AD1FFF7F5FE401B0228F5D90320A1E14E
:1006A000FFF7EEFE0546704B1B6813F4003FCDD0FC
:1006B000FFF7E6FE401B6428F5D9032092E14FF4D2
:1006C00096716B4800F04AFBC7E740F22D1168486D
:1006D00000F044FBC4E7644B5B6813F4800FCAD19D
:1006E000614B1B6813F0020F04D0E368012B01D0AB
:1006F000012077E15C48036823F0F8032169F822C0
:1007000092FAA2F2B2FA82F201FA02F21343036001
:10071000236813F0080F50D06369012B35D8636943
:10072000002B38D0544B01221A60FFF7A9FE054672
:100730004D4B5B6F13F0020F3FD1FFF7A1FE401B43
:100740000228F5D903204DE14748036823F0F80358
:100750002169F82292FAA2F2B2FA82F201FA02F2C6
:1007600013430360D4E7434B00221A60FFF788FE6F
:1007700005463D4B1B6813F0020FC9D0FFF780FE02
:10078000401B0228F5D903202CE140F26D113848B6
:1007900000F0E4FAC3E7384B00221A60FFF770FE5E
:1007A0000546314B5B6F13F0020F06D0FFF768FE72
:1007B000401B0228F5D9032014E1236813F0040F2D
:1007C00060D0A368012B01D9052B1FD10023019311
:1007D000254B1A6C42F080521A641B6C03F0805354
:1007E0000193019B254A136843F480731360FFF75C
:1007F00047FE0546214B1B6813F4807F0CD1FFF7A1
:100800003FFE401B0228F5D90320EBE040F2971190
:10081000174800F0A3FAD9E7227A194B1A70A36897
:1008200083B1FFF72DFE05460F4B1B6F13F0020F30
:1008300028D1FFF725FE401B41F288339842F3D9B7
:100840000320CFE0FFF71CFE0546074B1B6F13F09C
:10085000020F17D0FFF714FE401B41F28833984275
:10086000F3D90320BEE000BF003802400238024046
:10087000CC1A000800004742800E4742007000403A
:1008800070380240A369022B39D8A369002B00F00D
:10089000A880564A926802F00C02082A00F0A48050
:1008A000022B40F08880E36913B1B3F5800F2CD19F
:1008B000236A3F2B2FD8636A323BB3F5BF7F30D812
:1008C000A36A022B05D0042B03D0062B01D0082BE2
:1008D0002DD1E36A043B0B2B2FD8454B00221A6025
:1008E000FFF7CEFD0546414B1B6813F0007F2AD071
:1008F000FFF7C6FD401B0228F5D9032072E04FF434
:10090000E6713C4800F02AFABFE740F2D5113948B9
:1009100000F024FACCE74FF4EB71364800F01EFAF1
:10092000C9E740F2D711334800F018FAC8E74FF48E
:10093000EC71304800F012FACBE740F2D9112D48A3
:1009400000F00CFAC9E7E369226A1343616A47F6CB
:10095000C07292FAA2F2B2FA82F201FA02F21343E0
:10096000A26A5208013A4FF4403191FAA1F1B1FA6A
:1009700081F18A401343E16A4FF0706292FAA2F269
:10098000B2FA82F201FA02F21343184A5360184B8A
:1009900001221A60FFF774FD0446144B1B6813F024
:1009A000007F06D1FFF76CFD001B0228F5D903205C
:1009B00018E0002016E00E4B00221A60FFF760FDE1
:1009C00004460A4B1B6813F0007F06D0FFF758FD62
:1009D000001B0228F5D9032004E0002002E00120DA
:1009E00000E0002003B030BD0120FBE700380240EA
:1009F00060004742CC1A0008214B9B6803F00C03AF
:100A0000042B3AD0082B01D01E4870471C4B586865
:100A100000F03F005B6813F4800F1ED01A4AB2FB4F
:100A2000F0F2174B586847F6C073184093FAA3F3D7
:100A3000B3FA83F3D84000FB02F0114B5B6803F478
:100A400040334FF4403292FAA2F2B2FA82F2D3402B
:100A500001335B00B0FBF3F070470A4AB2FBF0F2DF
:100A6000074B586847F6C073184093FAA3F3B3FADC
:100A700083F3D84000FB02F0DFE70348704700BF74
:100A8000003802400024F40040787D0170B504462F
:100A90000D460368013B0E2B11D8072D15D88C4B42
:100AA0001B6803F00F03AB4215D2EBB2884A1370F8
:100AB000136803F00F03AB420DD0012070BD40F26C
:100AC0003721844800F04AF9E7E74FF40E71814876
:100AD00000F044F9E3E7236813F0020F18D0A3688D
:100AE0007BB1802B0DD0902B0BD0A02B09D0B02B3D
:100AF00007D0C02B05D0D02B03D0E02B01D0F02B9A
:100B000037D1754A936823F0F003A1680B439360D3
:100B1000236813F0010F73D06368032B2FD8636829
:100B2000012B32D09A1E012A36D96B4A126812F074
:100B3000020F00F0CA8068498A6822F0030213435A
:100B40008B60FFF79DFC06466368012B2BD0022BC0
:100B500038D0032B45D0604B9B6813F00C0F4FD05F
:100B6000FFF78EFC801B41F288339842F3D90320B3
:100B7000A4E740F24F21574800F0F0F8C1E740F2F7
:100B80005621544800F0EAF8C9E7534A126812F4B3
:100B9000003FD0D1012091E74F4A126812F0007F48
:100BA000C9D101208AE74C4B9B6803F00C03042B4E
:100BB00026D0FFF765FC801B41F288339842F2D9BA
:100BC00003207BE7444B9B6803F00C03082B17D0F2
:100BD000FFF756FC801B41F288339842F2D903207C
:100BE0006CE73D4B9B6803F00C030C2B08D0FFF720
:100BF00047FC801B41F288339842F2D903205DE71D
:100C0000334B1B6803F00F03AB4209D9EAB2304BF8
:100C10001A701B6803F00F03AB4201D001204DE7AF
:100C2000236813F0040F14D0E3685BB1B3F5805F61
:100C300008D0B3F5A05F05D0B3F5C05F02D0B3F51F
:100C4000E05F36D1244A936823F4E053E1680B4314
:100C50009360236813F0080F15D023695BB1B3F5D7
:100C6000805F08D0B3F5A05F05D0B3F5C05F02D0B8
:100C7000B3F5E05F23D1184A936823F460432169F8
:100C800043EAC1039360FFF7B7FE134B9B6803F081
:100C9000F003F02292FAA2F2B2FA82F2D3400F4AA3
:100CA000D35CD8400E4B18600F20FFF7B9FB002033
:100CB00004E74FF42D71074800F050F8C2E740F206
:100CC000BB21044800F04AF8D5E70120F6E600BF52
:100CD000003C0240CC1A000800380240BC1A000850
:100CE0000C000020014B1868704700BF0C0000206A
:100CF000FEE7000008B5034800F052F80120FFF7B6
:100D0000F7FF00BFFC1A000808B503460C4A12683A
:100D10005AB10B4A1068033323F003030344094A12
:100D2000934206D8064A136008BD054A0649116079
:100D3000EFE700F02DFA0C2303604FF0FF30F3E7EC
:100D4000209A002000FC0020BC9A002001230360B0
:100D5000014B0B60704700BF0400002008B50A4635
:100D60000146024800F004F8FFF7C4FF101B00081A
:100D70000FB400B583B004AB53F8042B019380216A
:100D8000064800F03FFA002803DD0146034800F062
:100D900047F803B05DF804EB04B07047289A0020D0
:100DA00010B5044600F0FAF90146204600F038F884
:100DB0000121024800F034F810BD00BFD41B000828
:100DC0002DE9F04385B004460F4643560BB10E465D
:100DD0001EE0042528462146ABBE0446384605B031
:100DE000BDE8F08314F9011B04AA1A4402F8101C90
:100DF0000133AB42F6D304AA1344002203F8102CAB
:100E00004FF00408E94640464946ABBE8046761B93
:100E1000002EE3D03546102E28BF10250023E8E72A
:100E200008B5FFF7CDFF08BD08B500F093F8024AFA
:100E3000024B9A6008BD00BF0000000800ED00E012
:100E4000F8B504460D4617461E462748FFF790FFA3
:100E500021682648FFF78CFF61682548FFF788FF67
:100E6000A1682448FFF784FFE1682348FFF780FF6B
:100E700021692248FFF77CFF61692148FFF778FF6D
:100E8000A1692048FFF774FFE1691F48FFF770FF71
:100E90001E48FFF76DFF29461D48FFF769FF1D4CEF
:100EA000E16A1D48FFF764FF216B1C48FFF760FFF4
:100EB000E16B1B48FFF75CFF15F0800F0AD115F4BA
:100EC000004F0CD11748FFF753FF06991648FFF75C
:100ED0004FFFF8BD39461548FFF74AFFEFE73146A7
:100EE0001348FFF745FFEDE73C1B00084C1B0008CB
:100EF0005C1B00086C1B00087C1B00088C1B000896
:100F00009C1B0008AC1B0008BC1B0008CC1B000885
:100F1000D81B000800ED00E0E81B0008F81B0008E3
:100F2000081C0008381C0008401C0008181C000899
:100F3000281C000883691A888A4201D00020704763
:100F40000268033A012A03D8023383610120704703
:100F5000002070470C4B1A6842F001021A60002111
:100F600099601A6822F0847222F480321A60074A6B
:100F70005A601A6822F480221A60D960044B4FF03C
:100F800000629A60704700BF0038024010300024B1
:100F900000ED00E0224B9B6803F00C03042B14D0FF
:100FA000082B16D01BB11F4B1F4A1A6002E01D4BC5
:100FB0001D4A1A601A4B9B68C3F303131B4AD15C8A
:100FC000184A1368CB4013607047164B184A1A60D2
:100FD000F0E7134B5A685B6803F03F0312F4800F8D
:100FE00013D0134AB2FBF3F20D4B5B68C3F38813C3
:100FF00003FB02F30A4A5268C2F301420132520073
:10100000B3FBF2F3074A1360D4E7074AB2FBF3F2EB
:10101000034B5B68C3F3881303FB02F3EAE700BFEB
:10102000003802400C0000200024F400841C00085A
:1010300040787D0178B912B1012A07D0704710318C
:10104000012303FA01F1044B19607047012303FAED
:1010500001F1014B196070471800024070B594B05F
:1010600000240194204B1A6C42F080521A641B6CCD
:1010700003F080530193019B02941C4B1A6842F4C5
:1010800040421A601B6803F440430293029B012311
:10109000089309934FF480030F93192310934FF48F
:1010A000A8731193042612960723139302250E9515
:1010B00008A8FFF783FA0F230393049505944FF4D0
:1010C000805306930794294603A8FFF7DFFCFFF738
:1010D00009FE074BA3FB00308009FFF73BFA3046BF
:1010E000FFF74EFA14B070BD0038024000700040A7
:1010F000D34D621008B5FFF7A9F9FFF7AFFFFFF76F
:1011000049FF08BD38B53CE01F4D2A5D02F00102E1
:1011100000210846FFF78EFF2A5DC2F3400201213D
:101120000020FFF787FF2A5DC2F380020221002022
:10113000FFF780FF2A5DC2F3C00203210020FFF702
:1011400079FF2A5DC2F3001204210020FFF772FF2D
:101150002A5DC2F3401205210020FFF76BFF2A5DD4
:10116000C2F3801206210020FFF764FF2A5DD20936
:1011700007210020FFF75EFF013449F6A0139C42CF
:10118000C2D90024F9E700BF10000020704700001A
:10119000014B1868704700BFB4990020034613F84C
:1011A000012B002AFBD1181A0138704730B5141EE4
:1011B00005469BB0184605DA8B232B604FF0FF30B5
:1011C0001BB030BD4FF40273ADF80C3014BF04F106
:1011D000FF332346029305934FF6FF73009104916A
:1011E000ADF80E3002461E9B6946284600F072F8A4
:1011F000431CBCBF8B232B60002CE1D0009B002242
:101200001A70DDE707B5009313460A460146034806
:101210000068FFF7CBFF03B05DF804FBB499002032
:101220002DE9F0478E689E4282460C4690469946CC
:1012300037D88A8912F4906F31D0256809696F1AFE
:101240006569022305EB450595FBF3F509F10103FB
:101250003B449D4238BF1D46530530D5294600F01A
:1012600079FB064650B90C23CAF80030A38943F035
:101270004003A3814FF0FF30BDE8F0873A46216973
:1012800000F0F6FAA38923F4906343F08003A3816E
:10129000266165613E44ED1B2660A5604E464E45C5
:1012A00000D94E4632464146206800F0ECFAA36869
:1012B0009B1BA36023681E4426600020DCE72A46AF
:1012C00000F0A2FB06460028E2D12169504600F05A
:1012D000F3FAC8E72DE9F04F9DB0804603938B8960
:1012E0001D060C4616460FD50B696BB9402100F060
:1012F00031FB2060206128B90C23C8F800304FF082
:10130000FF30C7E0402363610023099320238DF859
:10131000293030238DF82A304FF0010B37463D46F7
:1013200015F8013B0BB1252B3ED1B7EB060A0BD0CC
:101330005346324621464046FFF772FF013000F027
:10134000A480099B534409933B78002B00F09D80B7
:1013500000234FF0FF32CDE90523049307938DF866
:1013600053301A932F46052217F8011B4F4800F0FF
:101370002FFA049BD0B9D90644BF20228DF8532000
:101380001A0744BF2B228DF853202A782A2A15D019
:10139000079A2F4600200A25394611F8013B303BB9
:1013A000092B4DD9B8B10FE02F46B8E73F4A801A54
:1013B0000BFA00F0184304903D46D3E7039A111D41
:1013C00012680391002A01DB079204E0524243F0C5
:1013D0000203079204933B782E2B0CD17B782A2BA7
:1013E00033D1039B1A1D1B680392002BB8BF4FF02B
:1013F000FF33023705932E4D39780322284600F03B
:10140000E7F938B14023401B03FA00F0049B034383
:1014100001370493397827488DF8281006227E1C5E
:1014200000F0D6F9002838D0234B13BB039B0733B9
:1014300023F0070308330393099B4B4409936DE79B
:1014400005FB023201200F46A6E700230137059372
:1014500019460A25384610F8012B303A092A03D9D3
:10146000002BC8D00591C6E705FB012101230746E3
:10147000F0E703AB00932246104B04A94046AFF3BC
:101480000080B0F1FF3F8146D6D1A3895B063FF5CE
:1014900036AF09981DB0BDE8F08F03AB009322462C
:1014A000064B04A9404600F081F8EAE7941C0008C6
:1014B0009A1C00089E1C0008000000002112000871
:1014C0002DE9F04791461F468A680B69DDF82080B8
:1014D0009342B8BF1346C9F8003091F8432006463E
:1014E0000C4612B10133C9F800302368990642BF97
:1014F000D9F800300233C9F80030256815F0060528
:1015000007D104F1190AE368D9F800209B1AAB420D
:1015100028DC94F843302268003318BF0123920678
:101520002DD404F1430239463046C047013020D063
:101530002368E568D9F8002003F00603042B08BFF0
:10154000AD1AA36822690CBF25EAE5750025934210
:10155000C4BF9B1AED184FF000091A344D451AD13B
:10156000002008E00123524639463046C04701308A
:1015700003D14FF0FF30BDE8F0870135C3E7E11834
:101580005A1C302081F84300224494F8451082F818
:1015900043100233C5E70123224639463046C0478F
:1015A0000130E6D009F10109D8E700002DE9F04348
:1015B00001F1430C0C46097E85B06E29174606469C
:1015C00098460C9A00F0B38022D8632936D00AD806
:1015D000002900F0B980582900F0838004F1420509
:1015E00084F8421032E0642901D06929F6D12068DC
:1015F0001368050603F104012AD51B681160002B4E
:1016000003DA2D225B4284F843206F480A2239E036
:10161000732900F09D8008D86F2920D07029DDD172
:10162000236843F02003236003E0752917D078294D
:10163000D4D1782384F84530644855E01368191DE7
:101640001B68116004F1420584F8423001238CE0EC
:101650001B68116010F0400F18BF1BB2CFE7136872
:101660002568181D1060280601D51B6802E0680671
:10167000FBD51B8854486F2914BF0A220822002179
:1016800084F843106568A560002DC0F2958021683C
:1016900021F004012160002B3DD1002D40F08E800F
:1016A0006546082A0BD12368DB0708D523696268E1
:1016B0009A42DEBF302305F8013C05F1FF35ACEB63
:1016C00005032361CDF800803B4603AA214630463E
:1016D000FFF7F6FE01304DD14FF0FF3005B0BDE809
:1016E000F083394884F84510136821681D1D1B6874
:1016F00015600A060BD5CA0744BF41F020012160DE
:101700001BB9226822F0200222601022B7E74D06A2
:1017100048BF9BB2EFE76546B3FBF2F102FB113322
:10172000C35C05F8013D0B460029F5D1B9E7136804
:1017300025686169181D106028061B6801D51960AD
:1017400002E06A06FBD51980002323616546B9E7EC
:101750001368191D11601D6862680021284600F099
:1017600037F808B1401B606063682361002384F888
:101770004330A7E723692A4639463046C04701303F
:10178000AAD023689B0713D4E068039B9842B8BF94
:101790001846A3E701234A4639463046C047013080
:1017A0009AD00135E368039A9B1AAB42F2DCEBE76F
:1017B000002504F11909F5E7002BACD1037884F872
:1017C000423004F142056CE7A51C0008B61C000875
:1017D00001F0FF01102A2BDB10F0070F08D010F8E2
:1017E000013B013A8B422DD010F0070F42B3F6D1E6
:1017F000F0B441EA012141EA014122F007047FF0FF
:1018000000070023F0E80256083C85EA010586EA55
:10181000010685FA47F5A3FA87F586FA47F6A5FA91
:1018200087F68EB9EED1F0BC01F0FF0102F007029D
:1018300032B110F8013B013A83EA010313B1F8D148
:101840000020704701387047002D06BF3546033829
:10185000073815F0010F07D1013015F4807F02BF62
:10186000013015F4C03F0130F0BC0138704700BFB3
:1018700010B5431E0A44914200D110BD11F8014B2E
:1018800003F8014FF7E7884210B501EB020307D8D0
:10189000421E99420AD011F8014B02F8014FF8E7B5
:1018A0008342F5D98118D21AD34200D110BD13F862
:1018B000014D01F8014DF7E738B50546002945D03F
:1018C00051F8043C0C1F002BB8BFE41800F0D2F80C
:1018D0001F4A1368104633B9636014602846BDE898
:1018E000384000F0C8B8A3420CD92168621893426E
:1018F00004BF1A685B68636004BF5218226004600A
:10190000ECE713465A680AB1A242FAD91968581886
:10191000A0420BD120680144581882421960DDD1E1
:10192000106852685A6001441960D7E702D90C2345
:101930002B60D3E7206821188A4204BF11685268DF
:10194000626004BF091821605C60C7E738BD00BF52
:10195000A89A002070B5CD1C25F0030508350C2D84
:1019600038BF0C25002D064601DBA94203D90C2304
:101970003360002070BD00F07DF8214A14682146D4
:1019800091B9204C23681BB9304600F063F8206001
:101990002946304600F05EF8431C24D10C23336006
:1019A000304600F068F8E4E70B685B1B18D40B2B9B
:1019B0000FD90B60CD50CC18304600F05CF804F124
:1019C0000B00231D20F00700C31AD3D05A42E25067
:1019D000D0E78C424B6816BF636013600C46EBE7A0
:1019E0000C464968CCE7C41C24F00304A04205D08F
:1019F000211A304600F02EF80130CFD02560DBE709
:101A0000A89A0020AC9A0020F8B5074614460E4666
:101A100021B91146BDE8F840FFF79CBF22B9FFF796
:101A20004BFF25462846F8BD00F026F8A0420FD20D
:101A300021463846FFF78EFF05460028F2D0314692
:101A40002246FFF715FF31463846FFF735FFE9E735
:101A50003546E7E738B5064C0023054608462360BF
:101A6000FFF752F9431C02D1236803B12B6038BD44
:101A7000B49A00207047704751F8043C181F002B9F
:101A8000BCBF0B58C01870472E2E2F737973746526
:101A90006D2F7372632F73746D333266342D6861EA
:101AA0006C2F73746D3332663478785F68616C5F65
:101AB000636F727465782E63000000000000000000
:101AC0000102030401020304060708092E2E2F73E6
:101AD000797374656D2F7372632F73746D3332660F
:101AE000342D68616C2F73746D3332663478785F8F
:101AF00068616C5F7263632E6300000061626F72E5
:101B00007428292C2065786974696E672E2E2E0042
:101B10006173736572745F706172616D28292066EC
:101B200061696C65643A2066696C652022257322C0
:101B30002C206C696E652025640A00005374616373
:101B40006B206672616D653A0A00000020523020F9
:101B50003D2020253038580A000000002052312056
:101B60003D2020253038580A000000002052322045
:101B70003D2020253038580A000000002052332034
:101B80003D2020253038580A000000002052313214
:101B9000203D20253038580A00000000204C5220FB
:101BA0003D2020253038580A0000000020504320F6
:101BB0003D2020253038580A0000000020505352A4
:101BC000203D20253038580A000000004653522F8F
:101BD0004641523A0A0000002043465352203D201D
:101BE00020253038580A00002048465352203D2016
:101BF00020253038580A00002044465352203D200A
:101C000020253038580A00002041465352203D20FC
:101C100020253038580A0000204D4D464152203DC5
:101C200020253038580A00002042464152203D20ED
:101C300020253038580A00004D6973630A000000FF
:101C4000204C522F4558435F52455455524E3D202B
:101C5000253038580A0000005B486172644661759F
:101C60006C745D0A000000005B4275734661756C20
:101C7000745D0A005B55736167654661756C745DE0
:101C80000A00000000000000000000000102030440
:101C900006070809232D302B2000686C4C00656670
:101CA00067454647003031323334353637383941AD
:101CB00042434445460030313233343536373839C3
:071CC00061626364656600C8
:101CC80078563412249A0020000000000024F40002
:101CD800858579757172706E6E7172717170737AB3
:101CE80083898E909493928E8D8E8E88817B777760
:101CF80077767576777A79757070767F848A8E9024
:101D08008E8A86838485847F7D7B7C7E7D7C7E80B5
:101D180084847E777273777B7D808283817F8083E2
:101D2800868885818183858684828385858078718C
:101D38007074787A7B7E7F7C77787C8183848485D5
:101D48008B8F908D8B8A8A8781756C686C6F7276A1
:101D58007A7F7F7D7B808589878684898B8D8A8839
:101D6800878A8B867C726E6D706F727477787877DD
:101D78007E868C8D8D8E9093938F898888888279C2
:101D88006F6D6E71727376777775757880848685D6
:101D9800888A9194928D8B8C8E8A817771727272F7
:101DA8007276787878777A818587848385878A8838
:101DB8008280838787837D797B7D7E7E7F837F7A20
:101DC8007574797D80807E7F828585827F7F83821E
:101DD800807C797B808285868A8A837F7B7C7E7EF5
:101DE8007B7977797C7D7D7B7C808484838081820C
:101DF8008282838588837E7D7E81807F7C7A7A7BE0
:101E08007B7B79797B818383818184858586888AB8
:101E1800877F7B797C7E7D7C7A7A7C7D7E7E7E7FE7
:101E2800818383807E81808080828586817D7C7E9F
:101E380081817F7E7C7C7D7E7E7E7F8082838281A5
:101E48008382817E7D7F807E7A7B7C808281818097
:101E5800808180807E7E7E7F80807F81817F7E7D85
:101E68007E80807C7A7A8084818288837D82837D6B
:101E78007F83817E80837C7B7F7F7B7B7A7E7E7B7A
:101E88007B7E8689868388857E7F857D7A7F817C37
:101E98007B7D7D7F7E7A7A7F7E7C7B847C7B8A8E4D
:101EA80083808C8B8180887E7480876B6B8284743E
:101EB8007280817B7881817A7E8C8C82848B837C12
:101EC8008586838382827D77757574787A797A7E40
:101ED800847F7B7F898584878284848182848285CC
:101EE80085837A7675767373767980818584858320
:101EF8008983817C7F7F7E828385878782817675CF
:101F0800757D787E82898587847C7B7D76737971FF
:101F1800757C887F84949E8F8A818178797B7A7595
:101F28007A887771797862737C726C939891909CB7
:101F3800A2A290877B6A686C7158658084667782F4
:101F48007E7B8E8E928797A6967A7F8C837469663D
:101F5800506878756380919D8F98939D839C8E6758
:101F680086727D635C68746E8F99737B8689947EB4
:101F780091A198878E7D7C756873605E627C6F889E
:101F8800908FA99D9B83718A8E726F797B8C6E75F9
:101F980079787E7A68769C8C8F7D7A856E758E8E40
:101FA80087807F90926D7C8389836B5B72887D715B
:101FB800698F8F82818588919E9890746D756871FC
:101FC800706570969E8A7781967966697F868C8C13
:101FD800918F7C82868682736A8B917B6D789594CB
:101FE800676B7E8E837176828F828E7170645C8B54
:101FF800B9B8926F758E73657689927E79868D7879
:1020080068636584777090A18E8F8EA2996D6F7DBD
:1020180083777585958E70636A72785F709393770E
:10202800747F87747393A5A1888683816B616E7EA4
:102038008065547C9E886E798E8E6F768C8C8989AB
:10204800949A8965656B7971617EAEAD8975828D6B
:102058007A656C7B81838590897263707375646817
:1020680088A48D6D7D98997D768A98918D8A8982CC
:1020780077707A6F68647EA2A9836E7C8A785F70B5
:1020880090A69C9491988C796E6C6B76778B9C99C2
:10209800796C7A7E645C6A8591848F929E917E6B5E
:1020A800787779717595AE8A75776F66627088935F
:1020B80088948486716A677E7D7A7C7B9AAA8F650C
:1020C8006C747E6B6A7A969EA49A8C836858586062
:1020D8005E758298A9A98E78716E65567C96AFA5B3
:1020E800988B8D806A5C5869657A83909DAF9478E7
:1020F800696A6A656E849AAAB0A194765A555F6631
:10210800747E99989495907266666D69728AA7B084
:10211800A28C7A75665C535D6F919DB3A09A948D7D
:102128005E424C6B798191A0B6A8906B67595C555B
:102138006F758E97B2B49B89896F444D5A7B7D9990
:10214800A1BDA9956D64584747658398B0A0B99F0C
:102158008A7E7F4E40486D7F849EB1C4A991676F87
:102168005A4A466184A5B1A9AF857275805547560C
:102178007B8D8E9FAABAA3835D695E56556789A633
:10218800B1A4AF885F5370624F56839C9AA0A0AEEB
:10219800A1835E5F6363626E8A9CA1A1A095705360
:1021A8006474636277939A949395968871646E7158
:1021B8006D6F7D8E9895959684645B717C6B6C8150
:1021C80094948E8C9090836C687173727584959BCF
:1021D80094939189685D68796A6C7B90928C898DFB
:1021E8009286746A7A77756E7E8A958A8F909079CE
:1021F80061697C74617080938D908C978E86707500
:1022080077747075838B9088938A856A626C847002
:1022180068778D96918D8E998D81686F71766C73C4
:102228007E909591978C866E626C8A726A76919A86
:102238009188899C917D5F6E757767718299999075
:102248009588866A5A678B74677190958C86889989
:102258008D7B616F76786C72849D9D908D88856981
:102268005863877E6A6D87928E868090907F696EAC
:10227800767772718599A18D8789836D5B61878F68
:102288006D6A7B928F887B8E968C756B777C786F66
:102298008092A18A898A84776766818D6D616D8D48
:1022A80091898090A0977B6B7475746D778D9A90E7
:1022B8008C8B8682726979876C5D6C89938F89941F
:1022C800A69B7E686D6F7469748598968D87898BD7
:1022D80074646A7D66616E8C94989196A095776116
:1022E800646B746F7B89A39A8C838B856A5D727922
:1022F80068687991999C919898896A5F63717477F5
:102308007C929D9388848C7B62697C71676C8493D2
:102318009C949598967C66626B727776889B97906A
:102328008990816B687C6F64677E899696969A9887
:10233800866B62656E7079859998948B8F7F6E6FC6
:102348007A6B63697E8A8F97999E96846E69666BAD
:102358006D7888969891888B7B6F7B7A635E6F7FA8
:102368008689909BA0907F726E6B6C6A788D94962C
:102378008F897C7682846A5F687C828186969F9347
:10238800837478747068727F8E908D917E72838C5E
:1023980072676C8185847E8F988F786E77797B746D
:1023A8007F8B988B8A837777897B6A73848D858303
:1023B8008698907E686E727A757F8C9C9B8C8577E8
:1023C80074807F666B78888B8B8896998D736E6F17
:1023D8006E6B6F7D9199928F7F7B83836C67718120
:1023E800858783919A8B726D73736F6A768D9286E7
:1023F800827B858D7C62667C8B8582899C9F846AC2
:102408006971716F6E7F95958978768B8C6F5C6931
:1024180080857F8392A3987C6F74736D6C798E929C
:102428008C8079828B776369828D86818898988081
:102438006C6F777A72738898978775808C795D5FEF
:102448007A8E8E8B90A0A0866A676F706F6F88985F
:10245800988377879678595B788C867F8AA4A6902C
:102468006F6F7475686C829797847D908F715A60CE
:10247800828D82738D99A0887872675146617691B2
:10248800909393A28F6D5F7799A4A8A7A7A79F8021
:10249800665658453640688484849EA78C6B606D68
:1024A80068666480999F8A808492938C909AA79199
:1024B80086909E8F7B7280868680868C85725C581B
:1024C8005F6B676B768A877F85988771646E7C7D82
:1024D8007A7B8A92927F7973786F6D738385808413
:1024E8009594796C758F93918FA3ACA68870676E5D
:1024F800706C737E8E847A84917F6A637786898410
:102508008A989C8F7973767D7376839A958179847E
:102518007E675C68828B8883929A93776A69777CF6
:102528007E88929682767F8A74605E798D92898A97
:10253800989781656068757376809698867C888898
:1025480071646C868F8C83919E997D67666C7470BC
:102558007B8B9C937D778B876C5B67828F9392A331
:10256800A99B7B68686E706C7685908876778D8A73
:10257800736570858B87808FA09B8372777E7E784A
:10258800808E95896B617A846F5B63849691838A68
:102598009A93786369787C73758996947F6F83962C
:1025A80081605D798F8F82859DA38A6A5F6A736F68
:1025B8006C7C94998C71738C9370555F8190867B39
:1025C8008DAAA784666A7774656A849F9A8D767CDB
:1025D800908F6A596B888D7F7C91AD9E7F69767DDF
:1025E80078656F859D93897D7B87886F58687A8722
:1025F8007C818DA99B8268717B776A6F88999B879C
:10260800897A7E838466626D8085838995A0907DB2
:10261800666D7078727B889893847E717681836901
:1026280068718487868A979C8875677172736F7ED4
:102638008E988F8181767278857971728086888A82
:102648008F958E81726F7275777B89909189817C65
:102658006F71848775717A8A89888994978B77696D
:10266800697074757B8A92958D827B6A7083846D9C
:102678006D7A8E8A8A8B97988D766B6C7070707B6A
:102688008B9795907F806A6C7C886F6E7285868741
:1026980086939F94806B7172766C7A859790907F01
:1026A80086746A768B7A696B7787868C8B9F958E12
:1026B80071726B766E777F939390868080696F7E58
:1026C80087686B6C8484918B9B9D9A856F6869720F
:1026D8006B767F97939982897771748675676A7824
:1026E8008C949C92A1968F69635D6F6C768098A29A
:1026F8009F927E806A6A6F826B6F708A90988D91C4
:10270800968C7C6364657B7887879E97977F7C76B9
:10271800676A7C806870748D8D9788948F8D7262DB
:10272800616C777782899E94957B7F6F696C8478DA
:102738006D747F90949688948C896B6763767980A2
:10274800828C948F8A757A696D76897270708089A7
:1027580093908F9A958B6F6D6878747E7A8C919828
:10276800877C7D71778184676D72888A968F9B9844
:10277800907967656B767581859A96977E82726B7C
:10278800718574666E7E8F92958D9A8F866867655F
:1027980077768083949A98897A7B686C7883686B5B
:1027A800718789938B9395917D6B696D7876808518
:1027B8009692907A7E6E69728573676D7D8C909320
:1027C800909B938A6D656372737A80929796857FE2
:1027D800766975827B666C7A8F9296929B978D70DC
:1027E800605F6C72737D909C9A8B7F7B6C74807C2D
:1027F8006769768A8F9493999B907867656A7377EF
:10280800808B959B8E817A6973877F666777878CC3
:102818008E919799927967666B6C6D7E8E949C9475
:10282800887C6A72857D67657486909191989B9083
:10283800746562686F717B8F9DA2938477656E7FE4
:10284800766366788B93909199998D7466666E75A8
:10285800747D8F9DA09081716472807362667B8E97
:10286800948E95A09A8A756A65687773788C999E14
:102878008E876F657F816B606F849296919AA09F17
:10288800896963696E6C6E80919A988F84706D8285
:10289800806E65718B929790959F9A7C615C64704D
:1028A8006B718792A29D8F7C6F808874616978892B
:1028B8008A8E8F9798896B5C6470716E8198A1A0DD
:1028C800998C746B8181695A687E858E8E909597F4
:1028D8007E5A65848A7469799281877F727682A02C
:1028E800A08375947E6E615078928E99A1978C978B
:1028F80087504B6A615980A4A1A6946C52545E6AB1
:10290800A58F8088A8BA8167806E628393A39B8510
:10291800877B595D6E6B5C7487AB9F988E8BA08E9E
:102928007A54556382919B9D8E796A6A5C576F8A47
:10293800796A768285848689989A846860738078B3
:102948006D80A0A5968981737D867D736C7C8A8A4B
:102958008E939B9C8B725F6476857E7C8D999F8D10
:10296800777173787E6E6E7785928D86838D9C8E57
:102978006A6474787A787C8D96A08979736D6F759E
:1029880069677288959392979D9787685C56667574
:1029980079829CA2A1817065586979777784969C21
:1029A8009192939089816A625E72807C758696A204
:1029B8008B7F746375878175787D878492939A9AE3
:1029C80096776858616C697692A0A89D8A886C6829
:1029D8006E716A767990999E918F8E8B7562626618
:1029E8007C7D848EA19E9676756D666E7A787272FD
:1029F800809493938A9194916C5F5E757F7F818FA9
:102A0800A29E896C716A676D7C7374768C9A9E9CA1
:102A180092958F8360585B7980858A9C9F91806BA3
:102A28006F645F6A85808281939B9B93888387818B
:102A3800656A6D828986808B8C8780757F7D6D77CE
:102A48008E8A8172768895978B878F8C78675C677A
:102A5800797E868F9A9992847C74666071807F7E75
:102A68007E919C9C8782828678635F718992878534
:102A78009191877B706A766D758C92857C7482865D
:102A8800847F828E948A7B76767A716B7C8C8D8B30
:102A98008C8F82806D65717E7574748F9FA1968C02
:102AA8008D8E81695D5C767D7E8AA4A19D8380710F
:102AB8006C5A4F65959C8A868CA59C836675798B24
:102AC800726867889A947B83948F7E636D6E867133
:102AD8007084A8917B657A8E827B7A919B9B7878AB
:102AE8006B78746F6A8291978E868F85896A5D6D1F
:102AF8008A746A7597A6988F8E948F7F5D596077D0
:102B08008086879EA8A18674786D6C5C5B80AC9A81
:102B18008078919A867173888D866D777D837D7DA7
:102B28008091988B7C70807575766A7098987E72A3
:102B38007C938C776D83929A7E747880847D747888
:102B48008A87847886877A716E6E87947B696D89A7
:102B580092877E88959D8C7776736E6B69718B9F53
:102B68009E8C7D89826D5F5C72958A6F7389A2974E
:102B7800827B949F946D60697176727C909E92912D
:102B880084837F6D6463637F95867F83959D907E44
:102B98007F878F7F686B798483787E969D907E751A
:102BA8007F796560617294958284929B8B77758436
:102BB8008E8D7D757D7A747579858F8E88827D7D01
:102BC800736B6B677E9F9A827D838F8576788B97F0
:102BD800947C6A777F7B6F74849490867A7C8577FF
:102BE800706A6D88987E717A889288828B9A9486AA
:102BF8007475746D6B6D7E8E958D9189867866651A
:102C0800616A8897838489959487727D91927E679B
:102C18006F74776B6E7F9C9E92837E8575655E650B
:102C28007D9B8C787E8D938881818F91896D656875
:102C38006B747A8895A39B927C797066625C698FC5
:102C4800A58C7E829E99816C7A8B88706175868B43
:102C58007C818B9B8F8072757B706C6B778EA28A60
:102C68007D7C89897B6F778D918C797D7F81777663
:102C780079878C847D7886807E6C6B82A08A6C676D
:102C8800798D847C7FA0A39A75706E746A68748944
:102C98009B939086907B7B635F6F90836E6E839F20
:102CA8009B8D7E95938C6968697A74757D919F94E4
:102CB800877C8978775C5D719382787A94A69A8408
:102CC800778D8C8462686D827D7E7E98A0987D75F4
:102CD8007C7571525D83A1847A799BA08E707A8FFE
:102CE800927A68747B847B7F85968E8671777178FB
:102CF8006A667C9A8E7B7780958C7E7893978C70A9
:102D08007479827871738586857E8082857F6975FE
:102D180088836A6A74949A9081949D9475676B7697
:102D280078696F849996877F8587775866838470DA
:102D38006E7A9AA5938590978B716069757D747D7D
:102D48008E9A92817B7A7C6A61748C807877859878
:102D580098887F8C8E8673737381827D74828E8847
:102D68007F7B84796F74848B826B6E84968A818D65
:102D7800A1958473676D7B776F819597818687802E
:102D88007168758A7867677E97968D899F98836B37
:102D9800687180756C7E949E8F86828472615E7E77
:102DA80084736C7A92948F7F91948E76706D7E8204
:102DB800758084948781788476696B74776F6A7973
:102DC800949EA18A989896766D6B797D6D7B869294
:102DD800848B817F7465627379746B72878D8F823F
:102DE80094958D7068677A818397A3ABAB9B888E27
:102DF8007976707C74747988908B8983826E62523C
:102E08005253645E6C7385848A8B868975868E8A34
:102E1800787D839C979BA4B1BAAF938A8F7D777195
:102E28007B808681887D836C595D6353454C5E78D1
:102E38007F8580888E88736D697671818A96929A6B
:102E4800AEB2A478819C8F757E84959998838C8D79
:102E58008173747267635E65646966696D7A6C6DA7
:102E6800777E6C637087909197AEB6AE978D928E91
:102E7800877C8791988C928B907B707582725E5755
:102E880068766D6B6D7A7470606C6C7B747F878705
:102E9800848985878C86959C998C8B8F93888B9158
:102EA8009897928B8A847D716969676165686E6D90
:102EB8006C787C6F5F5F68736E798A9CA09C919731
:102EC800918D86848C928A8F949A97868A8E7E6555
:102ED800646A7975767883857D6D6D71716A6168CC
:102EE8007173767B7E827F888B827D858B92939AA5
:102EF800A1A49F999795867F82807D7A787A7D763E
:102F08006E6C7675665C6063696B71778489847AA8
:102F1800808F958C878C94958D8A8D9494918A89CD
:102F2800888075737C86837D7A80847E716A6E6EF4
:102F3800635D64737B7F818488877D7476767E8702
:102F48008E94A1A8A79F9C9793887E7B7B817F7B8B
:102F5800797E79716B6A6466636064727F807A7C5B
:102F680084827E787C858D8B8B8C9193908F9196C3
:102F7800959389807C878C88838486867D75757710
:102F880079726D6A72716F6B6F767977716A69762B
:102F98007C7D7C88929B989696999C938D8889894C
:102FA80089848284898A8278747471716F71747566
:102FB8007676777A78747575727170767C7F818A87
:102FC80095948A8589908F888A8F9392919193910D
:102FD8008C87827F7B726E6F706C7076716D6B6E92
:102FE80071716F73757C7F8182898C8C8C8B8B8ED1
:102FF8008D8B8C8C8F8F938C86808583817A7B7A5E
:103008007C7B7A7A7F807B757174736D676F727958
:10301800777C7A7D7B82878B898A8C8F9491959433
:103028009693938989827E777B7473767A777471A5
:10303800727B77736E726F7571777A84878D8A88E1
:1030480086868382827F898B8F8D8E848E908E82F6
:10305800807F83847E7F7E837E7B6F736E6A6169E7
:103068006A7174767B7C7A7682848A878C8A928F5E
:10307800909196969393918E83827D7D767A797DD1
:1030880077766F717C7D746C70757C72757B8686C3
:10309800877F7F7F7F7D7B7D8088888F9294878FD5
:1030A8009391898784888A86848084848275736FE3
:1030B800706B6A686A7176787473717B7F7D7B84C4
:1030C8008990908D8F939797938E8E868280807F3C
:1030D8008281868B8077757779797272737A797540
:1030E800747D80827F7A797B777174798381858A10
:1030F8008B878C8B8B8E8A84888B8B8E9096949002
:1031080089857E796B67686C6B6F73717272737384
:10311800777576747B81878A93979C99918F8E8A2D
:1031280083807E878586817D777E7D7973747271D1
:1031380074777E8187888A88867B767473707374C7
:103148007C83807C808987817D7C7A7D7D81879066
:1031580096999898948B8079747573757C7A777B37
:10316800807B736C69686B686B7681878E929599A2
:1031780095908C888785848B8882848A89837A73E2
:103188007172706C6F787D80817F8385817D7C8290
:10319800878886817E858A857F7F7B797675797F2A
:1031A800828486878783807F7D7C81858C8E8A89CF
:1031B8008D8C877B7474716E6C6F747B7E817F7E5F
:1031C8007F7E7873737B82898D8C8E979B98928B88
:1031D80086837E7776787C7E7F7C7B7C7C766D6D43
:1031E80074757878767C868B8A878585807C7A80EA
:1031F800858B8C8F8E8C8982797172767E84837FA1
:10320800838B8D837B7A7A7874757C868989898AA1
:103218008B867A72707474767D7D7E828888837DD1
:103228007C7A7B7C7E828C9291908C8C8B877F7F42
:103238008182857F76777B8080726D757A6E687102
:10324800797D7E7E848B868884787E82958F838F35
:1032580089908C8F8976796F7D889194856F617557
:103268006C77786D717D807F847B8A7A808F707AA5
:10327800837F80808894927E827E828C857F77711E
:1032880073808195958A92887D79696C7B70747F4B
:103298007F838A7F7F81828C857D7B807684887D11
:1032A8008870757C717D888E958E92977573847FF2
:1032B80082806E788076797E8B98918D8F7B6E6A0E
:1032C80064707977727A848C7D79848680746F7C57
:1032D80084849C918790969487848A907D7D81824E
:1032E80082746F72727074696975706D73737878AF
:1032F8007E8A8F858987909C989C9F9F99937C7FD5
:10330800858483706F787B8796887D7B6F6D5D552C
:10331800605E5861666C7E878A8B888B897D797937
:103328008295A1A6AB9FA6A89B95938F928B868327
:1033380078818079686A6B69696166665F6A6F67B8
:103348006B6F7075726F7578878A878B9DA3A39A48
:1033580097A09B938E8C939D979A96897F7672748B
:103368006B6665676862646D706D716663686A6ACA
:103378007078888F8B9C9D97979FA09F9794979222
:10338800918E8787898587837E7B77707067696F61
:103398006C6C69626469646C6E74787979848E8FF8
:1033A800949498928A878A8B8D8D919E9E9E9C91EB
:1033B8008887847E7A716F6F6E71716F6D696A6AC2
:1033C80063666967686D7683888A8D8F8D8F959B14
:1033D8009E979494999C9A9091928F8C8682817CE6
:1033E800726B656B6B66656E6E6D6F707674706E02
:1033F8006E7276777C868D9398999C98959593991B
:103408009C9D9B969390847779787B747171736F88
:103418006F6A6666646567686E706D767B81838B9C
:103428008B9094959094999B978C8D8F988F898B7E
:10343800928F8B7F726E706E69666D716C706D7233
:1034480075695F6A7378777E8C928D8D8A8C93907C
:103458009093999F9F9693908B85828181828078A3
:10346800757A7A766C6664656460616B757A7B7D63
:103478008183817D7D808A8D909698A1A79F96975C
:103488009B968E8A8C8A847D7773777170706D7045
:103498006E6B696B6C6C6A72747377726E78838703
:1034A8008684888C8F8C8C8F999A9795929799910E
:1034B8008A8B8C8B807A7B797B7A6D6A6F6F6B6174
:1034C8005F656B6B6665717B7C7E81868E908C8C6C
:1034D80093999C96979B9E9C928B8A8E89858789C7
:1034E800888377737274706C6D6E6B6B6B69696BC4
:1034F8007074777B8080847F7E848989858992989F
:10350800989493979896908E8A87837A7172737637
:1035180073717474766F65656B6B696A71787A76A6
:10352800757E8B8F8D8E9295928F8A8E90929195C3
:1035380099968F8D877E7C7D7D78706F717574709C
:1035480070737675727072716D696E7C86888C94F2
:103558009B9F988E8C91908C8B8D9493918B8A885D
:1035680087827B7471726D6A67686B6C6B6F757735
:1035780078736D717B80817F83898C88878990932C
:1035880091919196948E88898986817E82807E7AAF
:10359800747074736E6B6C6C686664676C757A8231
:1035A80084868685868585878D9096979A9D9B9536
:1035B800939490897E7D7B7B7472767C807B79770F
:1035C80078736E67696C6E7172777E878683828D79
:1035D8008D8C87888D94918C8F949C989592928BE2
:1035E800877E7C797B7D7A7A777A777064686D706C
:1035F8006B6769757D7A787A86888783888D8E88E7
:10360800888D92949192909490877C8386847C791B
:10361800797B776D6D6E7672726E706D6D686A6E9D
:10362800767B7B83848E8D887E878E9289878B9527
:10363800948B878A938E857C7C7A7B7271727B7B74
:103648007E7D7C7E7A716A7173756F767D868282E3
:1036580080878A8A88898E8F8C898F93948C8C89AD
:103668008F8B82798084847D77797D796F6D6F7691
:103678007677777D807F78787A7F7E80828A8E8859
:10368800858A928E88838686857E7E7F8687827EDF
:103698007F837F78737375757372757D79717279AD
:1036A8007C7975787E817E7C7F86898887888C8BFB
:1036B80087848688868382888980797C81807670F1
:1036C8007277746E7078807F7D7B7E7F7F78787F5D
:1036D800828786878E8A84888F908E878483848465
:1036E8007E81878E8C898A87837E797978797571CE
:1036F8006F73756F788388868787847D7B7E868BDA
:10370800928276777370738189908E9898A2A5AA11
:10371800A39791877B656467645D5F6768685E5798
:103728005A636A6E737784898C8A8A8C9092909295
:10373800949694938E8D8580797E818485878886FA
:103748008277736E716C696B737A7C6C666F706D5F
:1037580071787B7B7FA0A37B627D8A78748B948A47
:1037680091967D6982928F87867E8795918E938EBA
:103778008786848174716D6E6B74716F7B818386AB
:103788008885888D93918F8D8F908F8D8F8F908F57
:103798008D8A80756D7070747471717C85847B718D
:1037A80070767B7B84888580828382757278838338
:1037B800827D7B7B7D7975798188827C747B818C25
:1037C8008D8E8483848983766D6F726E6D69717254
:1037D80077798279797B898A8072778699A39C9395
:1037E8008C918B8778767889878785867F7F80809C
:1037F8007A6B737D887D776C7681928E89807B7EEB
:10380800807E7272809597958F918B8A837F6D6584
:103818006E818D8679798D9CA59485777373757083
:10382800686C7E909791837976716D5E53647F8F13
:103838008D877D8598ACA48E7C79818A8675707C0D
:103848008E92887D747271716E63667486867864F0
:10385800708A9F9D8D7A6F77808375717A8E989222
:1038680080747A7F83807073859E99816A74899F3A
:10387800A0897368798283756D6F7E8C887B6B7283
:103888007B87816F72849C947F687B94AEAB9481B4
:103898007481858975707087949384737B7D897230
:1038A800686C808A826D5B728AA99D8B6F6E757F4A
:1038B80084746E70919A9B7B787A87917A737490EE
:1038C800918664667DA0AE9A876B7273806E6B6911
:1038D8007A8A8E866F716D88756E657B8B8B78643E
:1038E8007D97BDA995717578858276777B918D9145
:1038F800787D6E83796D6A71847F816B7A82ACA6DC
:103908009671626875847777708D8F987F837986D2
:1039180083737A7B9080846F858EACA59379696F69
:103928006F7F767E768C86938282727A7C6C726DDB
:1039380088797D677E8DAFAA967A686F7483767C66
:103948007C9791947E887B8778686C7187757462A0
:10395800808DAF9F8F70686B73777176798B8C9140
:1039680080847A9173726E84897F756C849ABA9D0B
:1039780087666C6F7B757672838B8F847F7782887E
:103988006D736D887B7964778BAFB19578636E7A48
:10399800817A7B7F91919182867D987C78738084EF
:1039A8007168618096B69F8566656D797474768650
:1039B800898B80847B898A7680798C767361778E0F
:1039C800B0B49779656D79807B7C858E8F857977A2
:1039D800778E737970857C6B5F62849CB398806501
:1039E800656C777D7D828F94928080758F817E7ED5
:1039F800818C7170618092B3A78C6E5F686F7878E4
:103A080079838D9380796F7C877380758E7A7363E1
:103A18007294ACB5947F686F797E807C858E988D22
:103A28007E78728B707B7385836F69658B9EB49883
:103A38007F67636E7377777C868D918181708982C9
:103A48007B827D91747463849AB9B38B715D69705C
:103A5800767275828C90807A7175876F7F788F7C8B
:103A68006A636D96A7BC947F676971757C7B858B4B
:103A78009690847E738A747D81888C69675B889A46
:103A8800B6A2816C5E706F75717C838D90807F703B
:103A9800858679877F987A71617699AEB9918065C4
:103AA80070787B78727B818F827E74748A74857853
:103AB800867B656562909FBD9E886C667677807709
:103AC8008385908C817F708B7B7E8282916A6A5A13
:103AD800839CB5AA85765D71727A757A8087917EA6
:103AE8007B6A7B8171847892796E657197ACBE929E
:103AF8007F666E7B807D7C86859A8A7B747B746604
:103B08008D7F8852538D6B8CAEAD947A616F7B74C8
:103B180080887F8B9D8A8D736B9B6682887A925F83
:103B280069618C98B4B6856B5C827D78787F808972
:103B38008F7B7E65857D708576966D665C7690B3A5
:103B4800C1817A68767977848A898D967E86827231
:103B5800777187738B7A655E678FA4BC9076525BAA
:103B68007174756D82888F8F878A8BA5899898A5BF
:103B78009A696D37778999A963231A4DAEC6583A61
:103B88006BA8A37FA1ACB7A6A2A47B8E72745D803C
:103B9800BAC8AF6A5745574A595B5860576E676746
:103BA8005B7695859A95C3B7B3BCC6F0F0EDA58250
:103BB800565561463320303335212B384369588AAE
:103BC8009BA9B9A8BAB5E7F6FFEFCAB19B9E847363
:103BD8005E544B5C5A332A1132214F89525043822A
:103BE800818AC4F8F2B2AD958580A69573888A8BD0
:103BF800847D61565B4D6A5168635B584F899BBFF2
:103C08009D99898CA3A1A89FA89B9E918583769650
:103C18007C6B6663724144294F6D959B7676708EF6
:103C28008F9F9DADBDC2BFA2998D93936F765B6C3C
:103C380058402E2D65789D7166566E868E9C9CB276
:103C4800BCCAB89A9796A58A6F766C7441361636B0
:103C5800638D956F73668085938C9EB3C6C5A59B4F
:103C68009C9CA072665D6A68423A316475997C656D
:103C78005B6685919F9FB4B9C1B49B8E8690916E07
:103C88006F677F624B3B4C7B95AA7770647B7D772F
:103C9800707C92A1AA9A8A8F99A9987273758F6B72
:103CA80059467294A99F736757736E6E637B929A95
:103CB80097887A7E92B0978A8F9FA4796C5B859259
:103CC800A9815B4B4C63565350748CA0917F8595AA
:103CD800A4B392969BB2AC856F6C9DA4AE73573F0C
:103CE80040463E3D437692927B798191A9BD9A9E4A
:103CF800A9C3A678617EAAAEAA675D4D5952443C15
:103D0800537A88856B6A8195A3A18C9BA2B7967B11
:103D1800688FACB29F645F565E45454972929B8B33
:103D280074738893937D71949FAB88736394B1B8CF
:103D3800946E75717154555F899592776A6F818217
:103D4800886F688592946E646BA7B5C6A68D8882C5
:103D58007B5B5C6D9498917063627272775861882E
:103D68009C8C616580B1ADBB9B96958E7B5E6780B0
:103D78009B95866C636564565E516E83907B676E17
:103D880093B2B1BBA1A99D8F6E5E68879B907B6F34
:103D98006D63555958577B8F8C6F6D759BA4AFAC6D
:103DA800A6AB988164677791948D79716E665F6927
:103DB8005E6D8891816C687C9998A498A09E917694
:103DC8006872868F8F90857A746564685C748D8A52
:103DD800716E718C949A9B96958470616D7C898DB7
:103DE8009A9C918A7966685D6C87937A6A6A828BF5
:103DF8008990909A8A7E67636E80868C979E968358
:103E0800686F6E728592866E6873857F86889691D4
:103E1800816D626D818A8F96A0998F7A6B656071CA
:103E28008C8C6F6E7386888B8695988C7268707F81
:103E3800828A99A4A09082706D5B6677846B6666AF
:103E4800777F87868C968C84767578878D989CA7E3
:103E5800A493796B5D63778070676D7A7C7B7D86D0
:103E6800948B7D70727E89888FA2AEA998807864C1
:103E78005F6C786B676D7C83838183939081726DAF
:103E8800707577859CAEA8A192896E646F80706703
:103E98007180888687868E867D6F6C686B6D798A5F
:103EA800A1A3A19087756A727B6E65778A969391B4
:103EB8008E9A91806A646669626A768F9D9E948EF6
:103EC800826F70746F66788190949C9799958B7ABD
:103ED8006C626162646B7A8D929794988376767E31
:103EE800716D7483919695909792897B71666663DC
:103EF800686E7C858C8C8F928A87817F7679787DB5
:103F0800818A87898D8B8A837D7675716F707B7DB9
:103F180083808786868687837D7F7F8383877C7F70
:103F28008288837E7776777B7D7B7C808281807BAD
:103F38008283867D7D7C83878A8480828286828054
:103F48007B7C787C7D8280827E807E7A77777C78A5
:103F5800777681898E878A87878788847D7E82861F
:103F68007D7A797F7B7B78797A7C7A747376848A98
:103F78008C8585888D8C8883818585847E7D7A79FA
:103F88007678767678767573767982888F8C8D8D4B
:103F98008D8E8C88828487887D77777B7975757715
:103FA800777575727279838888878A8E918C8686F0
:103FB8008A8B88807D7B7A7977797A7A7677777930
:103FC8007C80838684827F8084878784878B8F8A9E
:103FD80081787477777772777A7A79798184878428
:103FE800817D7F8081828486888C8C88847F7D7A9D
:103FF800797978737175747D838984817D7E7C7A03
:104008007A7C7F868D8F8F8D8E8B887F7B7878707A
:104018006F6E7A81888785847E77747B7A7A7B80D5
:104028008188898D949A99948C83796D686E75814D
:10403800837A756D7071726A777C85919495919980
:1040480098968E8F9180727067757C7A7477786D88
:1040580070717C757C85808A9091898798988D8607
:104068007D7E7D76757678705E6A6A6A6C6E788019
:104078008C939EA5A9B0AD9D9CA5978A826C64601F
:104088003B478B91300A4A5C314B98888ACDD39054
:1040980093AEA8BED3B5A6C1B7A3897B72584540D5
:1040A800363E4D4D5265716E7F8B838090A4988605
:1040B8008D9EA09A939BABA99A7D6B62594A3B420D
:1040C800586B7482959D9C8A8375727F87817C8DDD
:1040D800A4B7B0A7A0A3A18A69666F584C53646BB4
:1040E8006F727D82786C5F61565E809598A2B3D1BD
:1040F800D6BCB3B6A685674E58594946546C7774F2
:104108006B67656E5B516B798CB2CCC6CBCDCEBC80
:104118009E8B85796C5846484B434350686E6A7449
:104128007E8A8B8B85979398B4BEB4ACA5AAA683D8
:104138006B7278664D3C4A504D4E59667B86949F0B
:10414800AEABA1989B89798E9E968D87879385774C
:10415800767A706F544A5B5D4E5A7C9B99959C9B0E
:1041680096968879857C829AA18F86859C9A827298
:104178007C7A7562464D5F64646D819890949692DE
:10418800868E80898E8EA5B5A4948A898B6B5B6296
:104198006F666A544E5B66666F7A99A9ABAAA0925D
:1041A80090948D9581839B9B837967696557525D50
:1041B800585B626579838896A4AEBAA9A5A6A39B25
:1041C800916E675F5573846D6A6D737D6B5A6A7CF7
:1041D8007B8477808F93949C93A6ADA4988D7D6AF9
:1041E8005754685D6B8985787E7C888376778D8A5D
:1041F8008F8071838C86838693AA98867B777C8050
:104208006F6F65617C8776707384938A7F88888CEA
:104218008B7676807C8A928B928D8C8E93847B634E
:104228006A6A64747F736D7C81857B7C929E958FAE
:104238007B7C928879767B95A49B8D867D7465625C
:1042480055546A7E756C7D929F91878E998F8F7D6C
:104258007A86828084979B917C7A7876665B574BC6
:10426800617C887C7D8FA8A4928D9B9C8A7B6A74D4
:1042780076807D7B84948D847A716F5A5D556885CC
:10428800958B858BA2AF9A8A8A95898062616F7AAD
:10429800776C7194A18F8176827576635F78938A43
:1042A800777C94A89D8876888D896D646E7B7B7BEE
:1042B80077899A958D7D887C795E556D88877E791A
:1042C8008EA69D8C7F8B9398756163777A797285BA
:1042D800969C937B8075775D55647F84817484A3F5
:1042E800ACA194908A8A74685D636A7A73868D97A4
:1042F800968F87797A63626A716E7A7994AEB5A17E
:10430800958B8F876C5C555E6872647B83959397F9
:1043180092908A746C676B70828B999DA39C9D9018
:104328008B7C71666661636C6C797C8F93998A8FDC
:10433800877676808383827F8590948E847F858339
:104348007A6C6B6774767C80858585857C7D828EAA
:104358008B8585817C828685838581817A7E787745
:10436800787A828183787772787E8489888681805A
:104378007C797A7F85868B86858681827F847F7D1E
:1043880077706D6F787B84888A88878680807D7E49
:104398007D828078807E85848A8D8B8376716C712E
:1043A80073797E8084878A8987838388858A8181D7
:1043B8007A787A7A8280887D7873787A7D8380802B
:1043C8008183858584838A8A8A8581857C7F7981B2
:1043D8007F7F7C74706C7679818182838284858901
:1043E8008989898A8B81847A79797F837F827877B2
:1043F8007075787D807E7F7D807F7F7E828A8D91BB
:10440800898C89807C767D7B7F79747277808184C2
:104418007F8181817F7B7C7B7E7F8582848E868A7B
:10442800838684837D7472707C7E837F7D7E7F7EAD
:104438007B7D7C818182847D848285848189898C4D
:104448007F7B7379818583787A7A7D797B79797EA8
:104458007E837D82878789818A898A827A75778235
:1044680082857E7D7C7D7D7B7E7B7F7B7F7C7B8365
:104478008287838B8B8B857B7875808286827B781D
:10448800777B7A7E7D838685837A827F8280838824
:1044980085887A79747B8183837D7D7A7D7D80812F
:1044A800818481847A7F818387818A878A7E7674F2
:1044B800767E7D90786C877D8F835F81B6936C6103
:1044C80063AEC88127468A967D84948895928D6DBF
:1044D80060708284859491877D7A7A767F7D837FE8
:1044E80081878080777B78807F7E8081887C7A83D3
:1044F8008A818087837A73838C857B758282837BAC
:104508007C787E8888868184808D877B767B877F90
:10451800817977757C9085838077798F635F8777DA
:10452800828895948D7A89B787584080993484AC6D
:104538008794B87F507C4994B27A6461768D7B58B1
:10454800A0AB9B8961778895766D74878778A593EA
:10455800756C68606874879B839AA6877C7B7D7F6F
:1045680071718362586B6A8F9EA1A196838E7E6A51
:104578008F848D7D56586773837F7293897D8B7581
:1045880080817A86918A88846E78737B7D7B8A9015
:104598007F83927A81786E8C86837E6E6F878E8910
:1045A8009488937B5F626576887B717F7A848C823E
:1045B8008C8C757A8687837D6E7B8A8D8E787E8CCF
:1045C80083818186968D7982827C8C7A75777A90C0
:1045D8008B7E898E738076778C8789887F8CA19172
:1045E8008C7E646E736673706C88988E89737B9406
:1045F8008686808E9DA07D736C676E6170788184DD
:104608008288A093786E6E7D7B606B8DA1A8978C55
:10461800928964584D61757B7D84A2A78965687508
:104628007D746E85A8A798868184705C5C74747AA2
:104638007880A5B89776616A7B665772A0C0B491F6
:104648008B887B5A4A52757685948DA4A083736DA6
:104658006D766B7098B0B19F8A8A7E563D466A85A2
:104668007E89A9AFBCA56E574754636B77ABCAC3A5
:10467800A586776E554C55627987A6B0A199977231
:104688005D424A5D7091BDD6C2A7876A50393A59D2
:104698007795A3B3AE9F9A8552353D65828190AEDA
:1046A800CDBD957457554D4D58789EB5C1A4898A8E
:1046B80077563C436F8B98AABFBA9864524E5A54A7
:1046C8005B7AACC1B8A77C7B846637305499A39DCC
:1046D800AAC5C99F633E43494E5C84B5C5BAA07854
:1046E8007578573F4E7DA6A099B2BBA47253526508
:1046F8005B4F6792C0BAA4837280774732548DA902
:104708009E9DB8BEA0724D4F5F5E6283A0AF9E8B28
:104718007576857350507998928B9AB2AD83625AA8
:104728006D6C5C6696B8B4966E5764725B4D64990E
:10473800B1A0969DA8977057586D67667EA2AFA3E3
:104748009479757A6B47486F9B9F929DAEAD876051
:1047580056656E667193B1B1977D677782684854E4
:104768007C98948FA4B3A77F605966645F7299B3ED
:10477800AB927D77827F6254709595828195A391E3
:104788006F636D79716D85A3A393806F738275587C
:104798005883A89B90959F977353546C756D79991E
:1047A800B2A38E766577856A536D94A18F94A2A67D
:1047B8008F6851596C676884AAB19B886F69777153
:1047C80053557DA0A08D90A1A88E6A5761695F643A
:1047D80087A5A598887377836F4D568299908F9D8A
:1047E800A69D7C67667470627196A1928878707FC6
:1047F800816458719090848D9CA59A7860677974CB
:104808006F849E9D90826B6E89806162839E928286
:1048180085959A846665787B6F7D9DAE9D8972606B
:104828006C7A6A587295A3969499A0906E595B6BAE
:104838006C6C84A8B1A698796C7973554C6E909479
:104848008E97A0A9937161666C606584A29C93861B
:1048580077808B73545B7E8F868792A1A281636475
:104868007171687999A6978A73677D846B5C748F78
:1048780091808594A2936E6069766E6B81A2A598EB
:10488800846B6D847B5F60829E978B8B939B846621
:10489800606E73687193A9A0977E6E7E876A506276
:1048A80088998D939AA7A177595E6F6D687999A3B6
:1048B8009A8E6F6D8886655A789594848B96A8969B
:1048C8006D626C72666A86A09C9380687284735964
:1048D80064889A8E868C9CA08062687774667395CB
:1048E800A39A8F76687D8266566E9195898D93A17D
:1048F800946D5F6B77726F85A3A090816A71847ADB
:104908005B5B7B9791848C9AA88C69606D716B74E2
:1049180092ACA1967E6A7B866E5A6B8B9787858E42
:104928009C9B77626876716D7D9DA79C91736D8164
:104938007C5E59779797888B95A391665E69716EAF
:104948007087A09E95846C7C8D7C5D637F91878643
:104958008E97A17F6264736F667393A2948A6F6463
:104968007D886F6176949786868C9C98725F687450
:10497800706D809B9D8F85686B7F795E61819C9748
:10498800888C909E856662717871738DA49A8E78F2
:104998006774806F59638299928F98A0A27A606633
:1049A80073726D7D98A89B8E746D8280665F738A22
:1049B8008D7E8491A49B736571776E7086A1A19496
:1049C800866B73877B626580979387898C998367E9
:1049D8006775766E728DA298917A6A7B8A74606D1B
:1049E800879488868D93937260687278727F9A9B99
:1049F80085775F6380866F6980988F8091A0BCB649
:104A080091796F5A4548698D9190846D80967C5F45
:104A1800607A89807A7F868E78667584807786A1A9
:104A2800AC9A917A748E8E6F5E74949A8A8F96A1DE
:104A3800966B5B676C666B829E9E958567748E7EAF
:104A48005C597286756E7E8EA2876B7384827571CF
:104A5800869589856F66828D7E6F7D9DA6928987F2
:104A680093926A555F6F767E8EABAEA08D66687A3C
:104A78006F53587A9A96909EA2A5866766706C675F
:104A8800708D9F96937F6B7C8976626C828E85870A
:104A98008A959C7C70787F736979999689856E76FA
:104AA8008B7C5E5E7B948A849098A28762636E6E2C
:104AB8006B7796AEA19C896B75826B5967828F88DC
:104AC8008B8F99987C6D6E726B687A9198928D73C2
:104AD8007689866D6886988C818C909C82616774D3
:104AE80070696F8CA59B98896F7C7F6551618394F1
:104AF800959AA3A6A37E615C625A5C718D9D9B9377
:104B08007C768586685E778C8C8A8B93A291726C92
:104B18006D6F6A728C9A92948B73767A6B5A687FEF
:104B2800908A8F99A09D806B6C6B5E5F7491A09E3C
:104B38009C8D7C827A594D6D848B8A939FA9906F46
:104B4800676A6E646E8A9F9D9C8B75727C6E585ED8
:104B58007E90929B9D9E9F8268625C5A5F778EA032
:104B6800A0A5957E7B795F536379868B95A0AA9FD4
:104B780086747267545B798C95999C8E807E745983
:104B8800566F8189939BA4A48B746A645C5B6E885E
:104B9800969BA09A847E7F6E565B7085858D9CAAB5
:104BA800AD92756C685F5B657A8F99A3A28B8485DB
:104BB800745A5B6B81858C97A6A490786C665D5D52
:104BC8006F7F8E9AA1A288808071585B6D838994CB
:104BD8009EACA6927D70645854627484949EAE9B79
:104BE8008D867D5F555B71787E8DA7B1A0917F73AF
:104BF800625B6272707E87A29D8984887C6B66691D
:104C0800747A8B959E938D848076666674787E829E
:104C18008C9A8B8487806E6A69717B858B98999949
:104C28009182756B676B6F75848A948D8D8E8A7B84
:104C3800736C6D727B82888D8E958D887E7A777481
:104C48006B727A7E7D808A918D81818284837D7961
:104C5800808384817F8185888887837F797673774D
:104C68007878797F879091898587867F7470767D3B
:104C7800818384888E8B857C7676777772747A8246
:104C8800868485888784838084888682817E7F7CE9
:104C98007577787A7A7B7C827F7D7B7E7F7E7C7C51
:104CA8007F83898A8D8C8C88827976777675727500
:104CB8007A7F80828180818383827F8182868584D6
:104CC80087878784837D7D7B7F7C76757A7D7A79FB
:104CD8007A81868A888A898684857E81828785808A
:104CE8008084837A7B797A7678787D7E80808789DC
:104CF8008A8683838586838481878682787B787990
:104D08007575797F8380827E7F80827D7E7F8486B1
:104D180086838A8C867F7977747772777A8283879D
:104D2800827D7E7A7A7A80808383868B8983848663
:104D3800817C7676797E7A7A7E7F7F7E7873777BC0
:104D480082858C8C8D898583807E7C838185848314
:104D580082837F797775767477767B868C8F8E8C55
:104D680086827C797F848688898A88847C7A77752C
:104D780077787B787A7D8182878482848180808538
:104D88008B908F8B8886807B777877797A7E7D7A0F
:104D9800787677787E7E807F84838687898A8A89F9
:104DA8008582807F7C7C7E827D7C73737275787B44
:104DB8008081837B7E7B7F8187898B8E8B8B8885A7
:104DC8007F807E7C77767676777A7F8182807C7723
:104DD80076777C8385848A908D8885838082868592
:104DE8008380807E7F7B7D7B7C7B7877767E8085E9
:104DF80084858383807A7B8085888F908E87848062
:104E08007F7E7D7B807D79787A7F7F7F777C7E7FD0
:104E18007A787A7F898A89878A85828081878B894F
:104E28008485827E7B7773757C7B777A817F7779BF
:104E38007C7F807C777C8685858B8F8E8B8A7F8034
:104E480080807C7F8281857E7675797877777A769F
:104E58007C7E7E8183868382847C8185888586901A
:104E6800878881877678827C7E8883807F7876724F
:104E7800797E806C79747D836A627C82A7C0A7A6DC
:104E88008983665F78918C92A4B0997756394C4A99
:104E98007CADA97D5C534F596D98A5AD9D819187D7
:104EA8006C76878F8A96AAA2867B7062707C8394C0
:104EB800917E7A716D7271707A8E8B81858276722D
:104EC8007C8074807E7A75788386807A8B8B8478F0
:104ED8007B7B7A7E71696B6C7C817C83857E7C812F
:104EE8008186838E978E7F8988838683817E818B56
:104EF8009287838982737A7C796E727B7A7E8582C7
:104F08007D83858C88818484817F7E8B7C6E788389
:104F180083848D97958383877573817D716F7B7784
:104F2800757D84827A7E81787D7C73818A82828C89
:104F38008B827A7B7678818D8E8D95948875766A4A
:104F4800656E75747A837F79767B78737986858ABE
:104F58008C817E87827778878D83878D92919085E3
:104F68007A717677676D7E7E777A7A7C8087878597
:104F780087867A7281897B7B8E8B817E7D757B8A21
:104F8800908E909D96857A7E7267666668798C8722
:104F98008084877C7476817D82908E8692927D77DC
:104FA8007F80727C8F97969B988B80766A515A6E19
:104FB8007576878D8987837E7373767976899896D7
:104FC8008C938E7971777473868F93939995867C79
:104FD80082735F6263636C81898585887F736F756F
:104FE8007F818E978C83908876787C757B8B8F9069
:104FF80095A0938077736254616A6D7C91959192C4
:105008008B7A716D707A76879797938F7E717677A2
:1050180070758F999C999B9284756E61586C7671A6
:105028007890908A807E77716F737F859599918E3D
:1050380099846E73777282908E979FA58B746E6F2A
:105048005F515C6A76828F868A8D8A7A78798084C5
:105058007E8690908C8B76747C7969778F959896FC
:10506800999386746C606472736B7791968D817B6B
:10507800797C7271748397927F858E7C74787D7D3C
:105088008D918A8C989680767775655D646F778642
:1050980088858E928475747B868182888A8D9382B6
:1050A800707E867C74839296959590887E746864E9
:1050B8006D767373818888807D7D81817D777F910E
:1050C8008B7B828F857E817E7D8E968C8490998B5A
:1050D800787271656364646E8287868E938D807B37
:1050E8007E7A7A8680768999847884887D7C8184A2
:1050F8008B908D7F7C817A66636D70767D7B808EE8
:1051080092867E81867E737B817F858B7F7E888277
:1051180078818B8C8884858786857C6D6E736B60BF
:105128006C7A8285888C9190897D77818275747F6D
:1051380081858A85849093877E858E897D7B7D7223
:105148006A69696B7A8381808D979185827D7B7D81
:105158007269809086838F938D8987848088897A05
:1051680072848A7971747372716B71828E8C888E75
:10517800938780827672837C6976908E878B9491F0
:1051880087827D787A82776F787A6D6D7477808A76
:1051980085808B9A907B7E82746D736E74889086FE
:1051A8008C9A9A898286817B797469707C7568701B
:1051B8007B7D7A7C868E908D827F877C69737E7BEF
:1051C800828B878A979C9281848A7E6A6C767678AD
:1051D800777374797876767F8E90888588908F79C2
:1051E8006C7A7C7071808D93959798918C84746A91
:1051F80073796D67727D807C787B8186817B8690F0
:105208008B8A877B787D746D778A928A89979C9040
:10521800877E7671726662717E79758087817B7F01
:105228008085928E7D828B81757370747E837F8A70
:105238009EA6998F938B7265675E6072766E7A8F81
:1052480092837E86867F7A757A8A88787D8B847A3F
:105258007D86858F9795898E9A8F736B736A636144
:105268006973818687868A89827B7B7E81867E7642
:105278007F9082747C89888484939B97968E8477A8
:10528800715C595C6C71747D8C94918E868382817B
:1052980069727F7E73858682858A8E838C9C9184D1
:1052A800918B807473605C646A626E858B8C929853
:1052B80091877E7E687580716E838D898B8A8B8CD1
:1052C8008F8E8682908E7E767A7468616265727E31
:1052D8007F838B96958A7C817A75746C7283857EC0
:1052E8008A94958D878C97928F887F7D7D6F5B5A86
:1052F800656F6B6B7F95949595938B7F6F687174D1
:1053080073757F8490989791909293817784847530
:10531800727A766E666C6B6E808C878995978F82B1
:105328007B7474716467808788909C9C918A8E8A4C
:105338007E8582746F7B786E696E72707177848DEA
:105348009493928F88766E706A6B7B7C79889A9F2B
:1053580095919698887B787B7571706C73706B6C7F
:105368007686979084878884746D7481817A7C8826
:105378008C8A8A8D98A1988B80727275645B6C7325
:1053880076797F8383828687909B9A8C8585766BD6
:105398006E6B64797C767D8B92908E96A1958D83C9
:1053A800807D7B70676D767670757981827C7B8471
:1053B80085837A717D837A757F8B94989DA09B8E67
:1053C800867E716F7771656C72747170798489915A
:1053D800918C97998F7F7D76726D6864768C898BB6
:1053E80097A6A29487887B6C6A645E6368656E7A08
:1053F800827F7E818B8C8985868A8B8170767C7092
:105408006C777B86939B9D9B97958A767076786E52
:105418006E737D817F7E8482848A80868F90878662
:105428007F797468626B7E828590A0A59A8F90843C
:10543800706D6B636D7A7A7E858B8A827E848281B9
:1054480083827F82807170746A63727883949FA468
:10545800A49E998E7871706F696D6D757D7D787772
:10546800797B80797F8D9287827D7B7A6D626C7F74
:10547800878D93A0A7A39591867369665D60707305
:10548800777C8589857E86868287888282837778FD
:10549800786F6A797E808FA0A59C96968E746A6BC9
:1054A8006861696C717D8585878A8C918780878B17
:1054B800807E767B817365707B7B868E979D9D97BA
:1054C8009483736E6E625E6B767D818A939289890E
:1054D800857F80867B797F80827766697977788710
:1054E8009BA6A3999E967B6E6C635E696F737C8C9A
:1054F8009692888A887C73727375736E7C847B78C5
:105508008689868D9B9E959199957E6E6D68585774
:105518005F6D7C848C99999492857B787675736D90
:10552800818D7F7884878381858E908D9193888102
:105538007C72635E5D656E7681949FA09C918A8281
:105548007468656778807B8093918A888E908A8555
:105558008B8D817D7B73666A6B6B6A72818C8F968B
:105568009E9E94897A71685C69726F78909593921F
:10557800989A90828485736D7177767674797C7E3B
:105588007F81848A8E8E8D887D766C667170677156
:10559800858A8F959EA0988F93897671706A686BBB
:1055A8006B747A7E8289898A8A898B867B786F6F09
:1055B8007B766E7D908F8C8F9C9D90898D82736E8B
:1055C8006A65686D70777D83898C8C8F92918E82E5
:1055D80077746E70756B6A808C898B98A5A18E889C
:1055E8008C7F6E6966676D6D737D83898F8E8F90F2
:1055F8008D87827775746F75776F748589898E99B1
:105608009E9888898B7E706E6C6D6F6B747E8182BC
:1056180088888A898684807877716F7778717A89A3
:105628008B8C929B9E958B8E86736A676466696D78
:105638007882858B8F93928B85867D726E6C757D53
:105648007672818B8D8D929B9D8E88887C6C696724
:10565800676C6F7882888E9391918C85817E706B50
:105668006B727C7A717B8D8E8C8D979E96848786E3
:10567800796D6A697074747F878A8D8E8A89847E51
:105688007C756F706D77817A7889908C8A8E9998FD
:105698008B868D84756C676B706C6E7D868A8B8D3E
:1056A800908D847F7A6F6E6C6E7E82788290908DFA
:1056B8008D93998F7F827F7067686A727373818B0D
:1056C8008C8C8D908F82787A74706D6A79857A77F0
:1056D800878D8F8B8B9697847F8279706D6C7478A9
:1056E80076828D8E8E8B89897E7274746C6E6C76E0
:1056F8008A86798490908A848D9A908185847B7239
:105708006D6D777478848889898787867A76776ECD
:105718006C6E73888D7E828F908B838795927F7E47
:10572800827D766C6B7A7D777C85898A8383878096
:105738007776717176738190837B878D8C84829064
:1057480095827C817E776D68747E777A838B8E866E
:10575800828985777573727974798C8D8082868C4D
:10576800877C828F8A7F83807F70727375897D833F
:105778008887897B89857A716E6F757D758C9D8424
:1057880082897F9383758D938279777380776C8311
:105798007F7C838292917A7F7C6E72717382887922
:1057A800899A918E7E868C7470758280827D8085C0
:1057B80078747281888A80848C86797980797B7301
:1057C8006B7D7F7E969E857D797B8770778A8C83BB
:1057D800807881887573797E827F7B8C8E85867CC4
:1057E800777671757A847E81888D817B8084827AD0
:1057F8007E878C898781827A6A6C797D8382858E9F
:105808008C7F8483807E6F6E767C7486908C8176A4
:10581800838D7B7B8D959788776D767672796F7996
:10582800777899A6A48F7D6E6E6B6D6B7278809673
:10583800908F857C838E837D868982867C7A7E6F35
:10584800626374848B94A39B947D72717575707078
:105858007B83868E958D827E807D6E737F847E8528
:105868007C8584726D798188928E908D7B736D6949
:10587800717072788880878F958F827E87887F8203
:10588800858A8C8C8688766E666D777D8787858617
:105898007F7A7575766F6C707D74839092847C7A4C
:1058A800837B737D8A938B84787E726568737E8A26
:1058B80087878C9290877B7777707077827C8B98BC
:1058C800968B8A858E8A7F848B90887C70736C69AE
:1058D8006B7E89949493959189787278746E6E76BC
:1058E800817C8B9A9485827E81807F878F8E897850
:1058F8006C6E6866708189909195918D877A6D6DCF
:105908006A66697886838B9A937B7679817D8188AC
:105918008F8F8D7E70726D656979868E8E94908971
:10592800817B6D6D6F706E7A8A889298927B7375A1
:10593800837D829195908D8171706B6B6A73829073
:1059480090949591898071696B706E778485919632
:105958008C7F797B89817E8C978F887C77756B6744
:1059680069717F8E8B909592847971706E6F6E7964
:105978008588909590847F7A858788868D8B8374B7
:1059880072736A6B6D747E8D91959190877A6C6C49
:105998006A70757E868592968A7C7A7D89828187EF
:1059A8008B8C88776F736C666972829190918E8BFD
:1059B80083766A6C6E7072838F8D93968B7A73760A
:1059C8008380818B928E8C7C71706E6C6D77858EE6
:1059D8008D908E8B82786C6C6E7778828A869096A2
:1059E8008A7770758682858F98968C786D6C6B6ACD
:1059F80069758A9793918C8980736C6E6D737482C4
:105A08008D8D9695897E7677828185929C9889740A
:105A18006E6963666A7389949293928F8270696DD6
:105A2800696E72828D929A9D8D7E71727E7C808A5B
:105A380097978B74726B64686E71818D91928C8864
:105A480080756C6B656C72868B8F9A9B8A796E7287
:105A5800807F848993978C73706F6A676B73858F67
:105A680093938D8C8474686A6A7277888B8F9E9CF6
:105A78008576717B837F868F989C917874706A672E
:105A88006B7488909595929287746A6B686C738A28
:105A98008B919F9C87786F7A8280898F96978D7972
:105AA800766D66666A72828B9495918E8373686749
:105AB800666C768C898D9B9A86756F7D817D8388CF
:105AC80091958874726A6867676F838C95918B8BE0
